{
  "contractName": "ERC659data",
  "abi": [
    {
      "inputs": [
        {
          "internalType": "uint256",
          "name": "",
          "type": "uint256"
        }
      ],
      "name": "_Symbol",
      "outputs": [
        {
          "internalType": "string",
          "name": "",
          "type": "string"
        }
      ],
      "stateMutability": "view",
      "type": "function"
    },
    {
      "inputs": [
        {
          "internalType": "uint256",
          "name": "",
          "type": "uint256"
        },
        {
          "internalType": "uint256",
          "name": "",
          "type": "uint256"
        }
      ],
      "name": "_activeSupply",
      "outputs": [
        {
          "internalType": "uint256",
          "name": "",
          "type": "uint256"
        }
      ],
      "stateMutability": "view",
      "type": "function"
    },
    {
      "inputs": [
        {
          "internalType": "address",
          "name": "",
          "type": "address"
        },
        {
          "internalType": "uint256",
          "name": "",
          "type": "uint256"
        },
        {
          "internalType": "uint256",
          "name": "",
          "type": "uint256"
        }
      ],
      "name": "_balances",
      "outputs": [
        {
          "internalType": "uint256",
          "name": "",
          "type": "uint256"
        }
      ],
      "stateMutability": "view",
      "type": "function"
    },
    {
      "inputs": [
        {
          "internalType": "uint256",
          "name": "",
          "type": "uint256"
        }
      ],
      "name": "_bankAddress",
      "outputs": [
        {
          "internalType": "address",
          "name": "",
          "type": "address"
        }
      ],
      "stateMutability": "view",
      "type": "function"
    },
    {
      "inputs": [
        {
          "internalType": "uint256",
          "name": "",
          "type": "uint256"
        },
        {
          "internalType": "uint256",
          "name": "",
          "type": "uint256"
        }
      ],
      "name": "_burnedSupply",
      "outputs": [
        {
          "internalType": "uint256",
          "name": "",
          "type": "uint256"
        }
      ],
      "stateMutability": "view",
      "type": "function"
    },
    {
      "inputs": [
        {
          "internalType": "uint256",
          "name": "",
          "type": "uint256"
        },
        {
          "internalType": "uint256",
          "name": "",
          "type": "uint256"
        },
        {
          "internalType": "uint256",
          "name": "",
          "type": "uint256"
        }
      ],
      "name": "_info",
      "outputs": [
        {
          "internalType": "uint256",
          "name": "",
          "type": "uint256"
        }
      ],
      "stateMutability": "view",
      "type": "function"
    },
    {
      "inputs": [
        {
          "internalType": "uint256",
          "name": "",
          "type": "uint256"
        },
        {
          "internalType": "uint256",
          "name": "",
          "type": "uint256"
        }
      ],
      "name": "_nonceCreated",
      "outputs": [
        {
          "internalType": "uint256",
          "name": "",
          "type": "uint256"
        }
      ],
      "stateMutability": "view",
      "type": "function"
    },
    {
      "inputs": [
        {
          "internalType": "uint256",
          "name": "",
          "type": "uint256"
        },
        {
          "internalType": "uint256",
          "name": "",
          "type": "uint256"
        }
      ],
      "name": "_redeemedSupply",
      "outputs": [
        {
          "internalType": "uint256",
          "name": "",
          "type": "uint256"
        }
      ],
      "stateMutability": "view",
      "type": "function"
    },
    {
      "inputs": [
        {
          "internalType": "uint256",
          "name": "",
          "type": "uint256"
        }
      ],
      "name": "last_bond_nonce",
      "outputs": [
        {
          "internalType": "uint256",
          "name": "",
          "type": "uint256"
        }
      ],
      "stateMutability": "view",
      "type": "function"
    }
  ],
  "bytecode": "0x608060405234801561001057600080fd5b50610496806100206000396000f3fe608060405234801561001057600080fd5b50600436106100a35760003560e01c806370822a6611610076578063a5eccab21161005b578063a5eccab214610217578063df29545f1461023a578063fc3838d914610280576100a3565b806370822a66146101d15780639c5d0a0e146101f4576100a3565b80631d0f114b146100a85780632444a1651461013a5780633cec73fc146101695780635ec49ff1146101a8575b600080fd5b6100c5600480360360208110156100be57600080fd5b50356102a3565b6040805160208082528351818301528351919283929083019185019080838360005b838110156100ff5781810151838201526020016100e7565b50505050905090810190601f16801561012c5780820380516001836020036101000a031916815260200191505b509250505060405180910390f35b6101576004803603602081101561015057600080fd5b503561035c565b60408051918252519081900360200190f35b6101576004803603606081101561017f57600080fd5b5073ffffffffffffffffffffffffffffffffffffffff813516906020810135906040013561036e565b610157600480360360608110156101be57600080fd5b5080359060208101359060400135610390565b610157600480360360408110156101e757600080fd5b50803590602001356103b3565b6101576004803603604081101561020a57600080fd5b50803590602001356103d0565b6101576004803603604081101561022d57600080fd5b50803590602001356103fe565b6102576004803603602081101561025057600080fd5b503561041b565b6040805173ffffffffffffffffffffffffffffffffffffffff9092168252519081900360200190f35b6101576004803603604081101561029657600080fd5b5080359060200135610443565b60056020908152600091825260409182902080548351601f60027fffffffffffffffffffffffffffffffffffffffffffffffffffffffffffffffff610100600186161502019093169290920491820184900484028101840190945280845290918301828280156103545780601f1061032957610100808354040283529160200191610354565b820191906000526020600020905b81548152906001019060200180831161033757829003601f168201915b505050505081565b60076020526000908152604090205481565b6000602081815293815260408082208552928152828120909352825290205481565b600660209081526000938452604080852082529284528284209052825290205481565b600260209081526000928352604080842090915290825290205481565b600860205281600052604060002081815481106103e957fe5b90600052602060002001600091509150505481565b600360209081526000928352604080842090915290825290205481565b60046020526000908152604090205473ffffffffffffffffffffffffffffffffffffffff1681565b60016020908152600092835260408084209091529082529020548156fea26469706673582212205259cf12255cc30974e8567e39049048a6dd54f2cfc243f2d3f59d3fd7e068c464736f6c63430006020033",
  "source": "pragma solidity ^0.6.2;\n// SPDX-License-Identifier: apache 2.0\n/*\n    Copyright 2020 Sigmoid Foundation <info@SGM.finance>\n    Licensed under the Apache License, Version 2.0 (the \"License\");\n    you may not use this file except in compliance with the License.\n    You may obtain a copy of the License at\n    http://www.apache.org/licenses/LICENSE-2.0\n    Unless required by applicable law or agreed to in writing, software\n    distributed under the License is distributed on an \"AS IS\" BASIS,\n    WITHOUT WARRANTIES OR CONDITIONS OF ANY KIND, either express or implied.\n    See the License for the specific language governing permissions and\n    limitations under the License.\n*/\nlibrary SafeMath {\n   \n    function add(uint256 a, uint256 b) internal pure returns (uint256) {\n        uint256 c = a + b;\n        require(c >= a, \"SafeMath: addition overflow\");\n\n        return c;\n    }\n\n    function sub(uint256 a, uint256 b) internal pure returns (uint256) {\n        return sub(a, b, \"SafeMath: subtraction overflow\");\n    }\n\n  \n    function sub(uint256 a, uint256 b, string memory errorMessage) internal pure returns (uint256) {\n        require(b <= a, errorMessage);\n        uint256 c = a - b;\n\n        return c;\n    }\n\n\n    function mul(uint256 a, uint256 b) internal pure returns (uint256) {\n       \n        if (a == 0) {\n            return 0;\n        }\n\n        uint256 c = a * b;\n        require(c / a == b, \"SafeMath: multiplication overflow\");\n\n        return c;\n    }\n\n  \n    function div(uint256 a, uint256 b) internal pure returns (uint256) {\n        return div(a, b, \"SafeMath: division by zero\");\n    }\n\n    function div(uint256 a, uint256 b, string memory errorMessage) internal pure returns (uint256) {\n        require(b > 0, errorMessage);\n        uint256 c = a / b;\n      \n\n        return c;\n    }\n\n    function mod(uint256 a, uint256 b) internal pure returns (uint256) {\n        return mod(a, b, \"SafeMath: modulo by zero\");\n    }\n\n    function mod(uint256 a, uint256 b, string memory errorMessage) internal pure returns (uint256) {\n        require(b != 0, errorMessage);\n        return a % b;\n    }\n}\n\ninterface IERC659 {\n    function totalSupply( uint256 class, uint256 nonce) external view returns (uint256);\n    function activeSupply( uint256 class, uint256 nonce) external view returns (uint256);\n    function burnedSupply( uint256 class, uint256 nonce) external view returns (uint256);\n    function redeemedSupply(  uint256 class, uint256 nonce) external  view  returns (uint256);\n    function getNonceCreated(uint256 class) external view returns (uint256[] memory);\n    function balanceOf(address account, uint256 class, uint256 nonce) external view returns (uint256);\n    function getBondSymbol(uint256 class) view external returns (string memory);\n    function getBondInfo(uint256 class, uint256 nonce) external view returns (string memory BondSymbol, uint256 timestamp, uint256 info2, uint256 info3, uint256 info4, uint256 info5,uint256 info6);\n    function bondIsRedeemable(uint256 class, uint256 nonce) external view returns (bool);\n    \n \n    function issueBond(address _to, uint256  class, uint256 _amount) external returns(bool);\n    function redeemBond(address _from, uint256 class, uint256[] calldata nonce, uint256[] calldata _amount) external returns(bool);\n    function transferBond(address _from, address _to, uint256[] calldata class, uint256[] calldata nonce, uint256[] calldata _amount) external returns(bool);\n    function burnBond(address _from, uint256[] calldata class, uint256[] calldata nonce, uint256[] calldata _amount) external returns(bool);\n    \n    event eventIssueBond(address _operator, address _to, uint256 class, uint256 nonce, uint256 _amount); \n    event eventRedeemBond(address _operator, address _from, uint256 class, uint256 nonce, uint256 _amount);\n    event eventBurnBond(address _operator, address _from, uint256 class, uint256 nonce, uint256 _amount);\n    event eventTransferBond(address _operator, address _from, address _to, uint256 class, uint256 nonce, uint256 _amount);\n}\n\ninterface ISigmoidBonds{\n    function isActive(bool _contract_is_active) external returns (bool);\n    function setGovernanceContract(address governance_address) external returns (bool);\n    function setExchangeContract(address governance_address) external returns (bool);\n    function setBankContract(address bank_address) external returns (bool);\n    function setTokenContract(uint256 class, address contract_address) external returns (bool);\n    function createBondClass(uint256 class, string calldata bond_symbol, uint256 Fibonacci_number, uint256 Fibonacci_epoch)external returns (bool);\n}\n\n\ncontract ERC659data {\n    mapping (address => mapping( uint256 =>mapping(uint256=> uint256))) public _balances;\n    \n    mapping (uint256 => mapping(uint256 => uint256)) public _activeSupply;\n    \n    mapping (uint256 => mapping(uint256 => uint256)) public _burnedSupply;\n  \n    mapping (uint256 => mapping(uint256 => uint256)) public _redeemedSupply;\n\n    mapping (uint256 => address) public _bankAddress;\n    \n    mapping (uint256 => string) public _Symbol;\n    \n    mapping (uint256 => mapping(uint256=> mapping(uint256=> uint256))) public _info;\n\n    mapping (uint256 => uint256)  public last_bond_nonce;\n    \n    mapping (uint256 => uint256[]) public _nonceCreated;\n    \n}\n\ncontract SigmoidBonds is IERC659, ISigmoidBonds, ERC659data{\n    using SafeMath for uint256;\n    \n    bool public contract_is_active;\n    address public governance_contract;\n    address public exchange_contract;\n    address public bank_contract;\n    address public bond_contract;\n    \n    mapping (uint256 => uint256) public last_activeSupply;\n    \n    mapping (uint256 => uint256) public last_burnedSupply;\n  \n    mapping (uint256 => uint256) public last_redeemedSupply;\n    \n    \n    mapping (uint256 => address) public token_contract;\n  \n    mapping (uint256 => uint256)  public last_bond_redeemed;\n    mapping (uint256 => uint256)  public _Fibonacci_number;\n    mapping (uint256 => uint256)  public _Fibonacci_epoch;\n    mapping (uint256 => uint256)  public _genesis_nonce_time;\n\n    constructor ( address governance_address) public {\n\n        governance_contract=governance_address;       \n        _Symbol[0]=\"SASH-USD\";\n        _Fibonacci_number[0]=8;\n        _Fibonacci_epoch[0]=8*60*60; // in test 60 sec\n        _genesis_nonce_time[0]=0;\n        \n        _Symbol[1]=\"SGM-SASH\";\n        _Fibonacci_number[1]=8;\n        _Fibonacci_epoch[1]=1;\n        _genesis_nonce_time[1]=0;\n        \n        _Symbol[2]=\"SGM,SGM\";\n        _Fibonacci_number[2]=8;\n        _Fibonacci_epoch[2]=1;\n        _genesis_nonce_time[2]=0;\n        \n        _Symbol[3]=\"SASH,SGM\";\n        _Fibonacci_number[3]=8;\n        _Fibonacci_epoch[3]=8*60*60;\n        _genesis_nonce_time[3]=0;\n        \n    }\n    \n     function isActive(bool _contract_is_active) public override returns (bool){\n         contract_is_active = _contract_is_active;\n         return(contract_is_active);\n         \n     }\n     \n     function setGovernanceContract(address governance_address) public override returns (bool) {\n        require(msg.sender==governance_contract, \"ERC659: operator unauthorized\");\n        governance_contract = governance_address;\n        return(true);\n    }\n    \n    function setExchangeContract(address exchange_address) public override returns (bool) {\n        require(msg.sender==governance_contract, \"ERC659: operator unauthorized\");\n        exchange_contract = exchange_address;\n        return(true);\n    }\n    \n    function setBankContract(address bank_address) public override returns (bool) {\n        require(msg.sender==governance_contract, \"ERC659: operator unauthorized\");\n        bank_contract = bank_address;\n        return(true);\n    }\n      \n    function setTokenContract(uint256 class, address contract_address) public override returns (bool) {\n        require(msg.sender==governance_contract, \"ERC659: operator unauthorized\");\n        token_contract[class] = contract_address;\n        return(true);\n    }\n    \n    function getNonceCreated(uint256 class) public override view returns (uint256[] memory){\n        return _nonceCreated[class];\n    }\n\n    \n    function createBondClass(uint256 class, string memory bond_symbol, uint256 Fibonacci_number, uint256 Fibonacci_epoch)public override returns (bool) {\n        require(msg.sender==governance_contract, \"ERC659: operator unauthorized\");\n        _Symbol[class]=bond_symbol;\n        _Fibonacci_number[class]=Fibonacci_number;\n        _Fibonacci_epoch[class]=Fibonacci_epoch;\n        _genesis_nonce_time[class]=0;\n        return true;\n    }   \n    \n    function totalSupply( uint256 class, uint256 nonce) public override view returns (uint256) {\n    \n       return _activeSupply[class][nonce]+_burnedSupply[class][nonce]+_redeemedSupply[class][nonce];\n    }\n    \n    function activeSupply( uint256 class, uint256 nonce) public override view returns (uint256) {\n    \n       return _activeSupply[class][nonce];\n    }\n    function burnedSupply( uint256 class, uint256 nonce) public override view  returns (uint256) {\n    \n        return _burnedSupply[class][nonce];\n    }\n    \n    function redeemedSupply(  uint256 class, uint256 nonce) public override view  returns (uint256) {\n    \n        return _redeemedSupply[class][nonce];\n    }\n    \n    function balanceOf(address account, uint256 class, uint256 nonce) public override view returns (uint256){\n        require(account != address(0), \"ERC659: balance query for the zero address\");\n        return _balances[account][class][nonce];\n    }\n    \n    function getBondSymbol(uint256 class) view public override returns (string memory){\n        \n        return _Symbol[class]; \n    } \n    \n    function getBondInfo(uint256 class, uint256 nonce) public override view returns (string memory BondSymbol, uint256 timestamp, uint256 info2, uint256 info3, uint256 info4, uint256 info5,uint256 info6) {\n        BondSymbol=_Symbol[class];\n        timestamp=_info[class][nonce][1];\n        info2=_info[class][nonce][2];\n        info3=_info[class][nonce][3];\n        info4=_info[class][nonce][4];\n        info5=_info[class][nonce][5];\n        info6=_info[class][nonce][6];\n    }\n    \n    function bondIsRedeemable(uint256 class, uint256 nonce) public override view returns (bool){\n        if(last_bond_redeemed[class] >= nonce){\n            return(true);\n        }\n        \n        if(uint(_info[class][nonce][1])<now){\n            uint256 total_liquidity=last_activeSupply[class];\n            uint256 needed_liquidity=last_activeSupply[class];\n            //uint256 available_liquidity;\n    \n            for (uint i=last_bond_redeemed[class]; i<=last_bond_nonce[class]; i++) {\n                total_liquidity += _activeSupply[class][i]+_redeemedSupply[class][i];\n                }\n            \n            for (uint i=last_bond_redeemed[class]; i<=nonce; i++) {\n                needed_liquidity += (_activeSupply[class][i]+_redeemedSupply[class][i])*2;\n                }\n                \n            if(total_liquidity>=needed_liquidity){\n               \n                return(true);\n                \n                }\n            \n            else{\n                return(false);\n            }\n         }\n         \n    else{\n            return(false);\n        }\n\n             \n    }\n    \n    function _writeLastLiquidity(uint256 class, uint256 nonce) internal returns (bool){\n  \n    \n        uint256 total_liquidity;\n        //uint256 available_liquidity;\n\n        for (uint i=last_bond_redeemed[class]; i<nonce; i++) {\n            total_liquidity += last_activeSupply[class] + _activeSupply[class][i]+_redeemedSupply[class][i];\n       \n                \n        } \n        last_activeSupply[class]=total_liquidity;\n    }\n         \n    function _createBond(address _to, uint256 class, uint256 nonce, uint256 _amount) private returns(bool) {\n    \n        if(last_bond_nonce[class]<nonce){\n            last_bond_nonce[class]=nonce;\n        }\n        _nonceCreated[class].push(nonce);\n        _info[class][nonce][1]=_genesis_nonce_time[class] + (nonce) * _Fibonacci_epoch[class];\n        _balances[_to][class][nonce]+=_amount;\n        _activeSupply[class][nonce]+=_amount;\n        emit eventIssueBond(msg.sender, _to, class,nonce, _amount);\n        return(true);\n    }\n    function _issueBond(address _to, uint256 class, uint256 nonce, uint256 _amount) private returns(bool) {\n        if (totalSupply(class,nonce)==0){\n            _createBond(_to,class,nonce,_amount);\n            return(true);\n            }\n            \n        else{\n            _balances[_to][class][nonce]+=_amount;\n            _activeSupply[class][nonce]+=_amount;\n            emit eventIssueBond(msg.sender, _to, class,last_bond_nonce[class], _amount);\n            return(true);\n            }\n    } \n    \n    function _redeemBond(address _from, uint256 class, uint256 nonce, uint256 _amount) private returns(bool) {\n       \n        _balances[_from][class][nonce]-=_amount;\n        _activeSupply[class][nonce]-=_amount;\n        _redeemedSupply[class][nonce]+=_amount;\n        emit eventRedeemBond( msg.sender,_from, class, nonce, _amount);\n        return(true);\n    }  \n    \n    function _transferBond(address _from, address _to, uint256 class, uint256 nonce, uint256 _amount) private returns(bool){      \n        _balances[_from][class][nonce]-=_amount;\n        _balances[_to][class][nonce]+=_amount;\n        emit eventTransferBond( msg.sender,_from,_to, class, nonce, _amount);\n        return(true);\n    \n    }\n    \n    function _burnBond(address _from, uint256 class, uint256 nonce, uint256 _amount) private returns(bool){      \n        _balances[_from][class][nonce]-=_amount;\n        emit eventBurnBond( msg.sender,_from, class, nonce, _amount);\n        return(true);\n    \n    }\n            \n     function issueBond(address _to, uint256  class, uint256 _amount) external override returns(bool){\n        require(contract_is_active == true);\n        require(msg.sender==bank_contract, \"ERC659: operator unauthorized\");\n        require(_to != address(0), \"ERC659: issue bond to the zero address\");\n        require(_amount >= 100, \"ERC659: invalid amount\");\n        if(_genesis_nonce_time[class]==0){_genesis_nonce_time[class]=now-now % _Fibonacci_epoch[class];}\n        uint256  now_nonce=(now-_genesis_nonce_time[class])/_Fibonacci_epoch[class];\n        uint256 FibonacciTimeEponge0=1;\n        uint256 FibonacciTimeEponge1=2;\n        uint256 FibonacciTimeEponge;\n        uint256 amount_out_eponge;\n        for (uint i=0; i<_Fibonacci_number[class]; i++) {\n            if(i==0){FibonacciTimeEponge=1;}\n            else{\n                if(i==1){FibonacciTimeEponge=2;}\n                else{\n                    FibonacciTimeEponge=(FibonacciTimeEponge0+FibonacciTimeEponge1);\n                    FibonacciTimeEponge0=FibonacciTimeEponge1;\n                    FibonacciTimeEponge1=FibonacciTimeEponge;\n                    \n            }\n        }   \n            amount_out_eponge+=FibonacciTimeEponge;     \n    }\n        \n        amount_out_eponge=_amount*1e6/amount_out_eponge;\n        FibonacciTimeEponge=0;\n        FibonacciTimeEponge0=1;\n        FibonacciTimeEponge1=2;\n        for (uint i=0; i<_Fibonacci_number[class]; i++) {\n            if(i==0){FibonacciTimeEponge=1;}\n            else{\n                if(i==1){FibonacciTimeEponge=2;}\n                else{\n                    FibonacciTimeEponge=(FibonacciTimeEponge0+FibonacciTimeEponge1);\n                    FibonacciTimeEponge0=FibonacciTimeEponge1;\n                    FibonacciTimeEponge1=FibonacciTimeEponge;\n                }\n            }   \n            require(_issueBond( _to, class, now_nonce + FibonacciTimeEponge, amount_out_eponge * FibonacciTimeEponge/1e6) == true);\n        }    \n      return(true);\n    }\n    \n    function redeemBond(address _from, uint256 class, uint256[] calldata nonce, uint256[] calldata  _amount) external override returns(bool){\n        require(contract_is_active == true);\n        require(msg.sender==bank_contract || msg.sender==_from, \"ERC659: operator unauthorized\");\n        for (uint i=0; i<nonce.length; i++) {\n            require(_balances[_from][class][nonce[i]] >= _amount[i], \"ERC659: not enough bond for redemption\");\n            require(bondIsRedeemable(class,nonce[i])==true, \"ERC659: can't redeem bond before it's redemption day\");\n            require(_redeemBond(_from,class,nonce[i],_amount[i]));\n            \n            if(last_bond_redeemed[class] < nonce[i]){\n\n            _writeLastLiquidity(class,nonce[i]);\n            last_bond_redeemed[class]=nonce[i];\n            }\n        }\n        \n        \n        return(true);\n\n       \n    }\n    function transferBond(address _from, address _to, uint256[] calldata class, uint256[] calldata nonce, uint256[] calldata _amount) external override returns(bool){ \n        require(contract_is_active == true);\n        for (uint n=0; n<nonce.length; n++) {\n            require(msg.sender==bank_contract || msg.sender==exchange_contract, \"ERC659: operator unauthorized\");\n            require(_balances[_from][class[n]][nonce[n]] >= _amount[n], \"ERC659: not enough bond to transfer\");\n            require(_to!=address(0), \"ERC659: cant't transfer to zero bond, use 'burnBond()' instead\");\n            require(_transferBond(_from, _to, class[n], nonce[n], _amount[n]));\n           \n            \n        }\n        return(true);\n    }\n    function burnBond(address _from, uint256[] calldata class, uint256[] calldata nonce, uint256[] calldata _amount) external override returns(bool){\n        require(contract_is_active == true);\n        for (uint n=0; n<nonce.length; n++) {\n            require(msg.sender==bank_contract || msg.sender==_from, \"ERC659: operator unauthorized\");\n            require(_balances[_from][class[n]][nonce[n]] >= _amount[n], \"ERC659: not enough bond to burn\");\n            require(_burnBond(_from, class[n], nonce[n], _amount[n]));\n           \n            \n        }\n        return(true);\n    }\n}",
  "sourcePath": "D:/基础代码/workGroup/contracts/SigmoidBonds.sol",
  "compiler": {
    "name": "solc",
    "version": "0.6.2+commit.bacdbe57.Emscripten.clang"
  },
  "schemaVersion": "3.3.3",
  "updatedAt": "2021-04-18T17:24:41.588Z",
  "devdoc": {
    "methods": {}
  },
  "userdoc": {
    "methods": {}
  }
}