{
  "contractName": "SGM",
  "abi": [
    {
      "inputs": [
        {
          "internalType": "address",
          "name": "governance_address",
          "type": "address"
        }
      ],
      "stateMutability": "nonpayable",
      "type": "constructor"
    },
    {
      "anonymous": false,
      "inputs": [
        {
          "indexed": true,
          "internalType": "address",
          "name": "owner",
          "type": "address"
        },
        {
          "indexed": true,
          "internalType": "address",
          "name": "spender",
          "type": "address"
        },
        {
          "indexed": false,
          "internalType": "uint256",
          "name": "value",
          "type": "uint256"
        }
      ],
      "name": "Approval",
      "type": "event"
    },
    {
      "anonymous": false,
      "inputs": [
        {
          "indexed": true,
          "internalType": "address",
          "name": "from",
          "type": "address"
        },
        {
          "indexed": true,
          "internalType": "address",
          "name": "to",
          "type": "address"
        },
        {
          "indexed": false,
          "internalType": "uint256",
          "name": "value",
          "type": "uint256"
        }
      ],
      "name": "Transfer",
      "type": "event"
    },
    {
      "inputs": [],
      "name": "_maxiumuSupply",
      "outputs": [
        {
          "internalType": "uint256",
          "name": "",
          "type": "uint256"
        }
      ],
      "stateMutability": "view",
      "type": "function"
    },
    {
      "inputs": [],
      "name": "_totalSupply",
      "outputs": [
        {
          "internalType": "uint256",
          "name": "",
          "type": "uint256"
        }
      ],
      "stateMutability": "view",
      "type": "function"
    },
    {
      "inputs": [
        {
          "internalType": "address",
          "name": "owner",
          "type": "address"
        },
        {
          "internalType": "address",
          "name": "spender",
          "type": "address"
        }
      ],
      "name": "allowance",
      "outputs": [
        {
          "internalType": "uint256",
          "name": "",
          "type": "uint256"
        }
      ],
      "stateMutability": "view",
      "type": "function"
    },
    {
      "inputs": [
        {
          "internalType": "address",
          "name": "spender",
          "type": "address"
        },
        {
          "internalType": "uint256",
          "name": "amount",
          "type": "uint256"
        }
      ],
      "name": "approve",
      "outputs": [
        {
          "internalType": "bool",
          "name": "",
          "type": "bool"
        }
      ],
      "stateMutability": "nonpayable",
      "type": "function"
    },
    {
      "inputs": [
        {
          "internalType": "address",
          "name": "account",
          "type": "address"
        }
      ],
      "name": "balanceOf",
      "outputs": [
        {
          "internalType": "uint256",
          "name": "",
          "type": "uint256"
        }
      ],
      "stateMutability": "view",
      "type": "function"
    },
    {
      "inputs": [],
      "name": "bank_contract",
      "outputs": [
        {
          "internalType": "address",
          "name": "",
          "type": "address"
        }
      ],
      "stateMutability": "view",
      "type": "function"
    },
    {
      "inputs": [],
      "name": "contract_is_active",
      "outputs": [
        {
          "internalType": "bool",
          "name": "",
          "type": "bool"
        }
      ],
      "stateMutability": "view",
      "type": "function"
    },
    {
      "inputs": [
        {
          "internalType": "address",
          "name": "spender",
          "type": "address"
        },
        {
          "internalType": "uint256",
          "name": "subtractedValue",
          "type": "uint256"
        }
      ],
      "name": "decreaseAllowance",
      "outputs": [
        {
          "internalType": "bool",
          "name": "",
          "type": "bool"
        }
      ],
      "stateMutability": "nonpayable",
      "type": "function"
    },
    {
      "inputs": [],
      "name": "dev_address",
      "outputs": [
        {
          "internalType": "address",
          "name": "",
          "type": "address"
        }
      ],
      "stateMutability": "view",
      "type": "function"
    },
    {
      "inputs": [],
      "name": "governance_contract",
      "outputs": [
        {
          "internalType": "address",
          "name": "",
          "type": "address"
        }
      ],
      "stateMutability": "view",
      "type": "function"
    },
    {
      "inputs": [
        {
          "internalType": "address",
          "name": "spender",
          "type": "address"
        },
        {
          "internalType": "uint256",
          "name": "addedValue",
          "type": "uint256"
        }
      ],
      "name": "increaseAllowance",
      "outputs": [
        {
          "internalType": "bool",
          "name": "",
          "type": "bool"
        }
      ],
      "stateMutability": "nonpayable",
      "type": "function"
    },
    {
      "inputs": [],
      "name": "totalSupply",
      "outputs": [
        {
          "internalType": "uint256",
          "name": "",
          "type": "uint256"
        }
      ],
      "stateMutability": "view",
      "type": "function"
    },
    {
      "inputs": [
        {
          "internalType": "address",
          "name": "recipient",
          "type": "address"
        },
        {
          "internalType": "uint256",
          "name": "amount",
          "type": "uint256"
        }
      ],
      "name": "transfer",
      "outputs": [
        {
          "internalType": "bool",
          "name": "",
          "type": "bool"
        }
      ],
      "stateMutability": "nonpayable",
      "type": "function"
    },
    {
      "inputs": [
        {
          "internalType": "address",
          "name": "sender",
          "type": "address"
        },
        {
          "internalType": "address",
          "name": "recipient",
          "type": "address"
        },
        {
          "internalType": "uint256",
          "name": "amount",
          "type": "uint256"
        }
      ],
      "name": "transferFrom",
      "outputs": [
        {
          "internalType": "bool",
          "name": "",
          "type": "bool"
        }
      ],
      "stateMutability": "nonpayable",
      "type": "function"
    },
    {
      "inputs": [
        {
          "internalType": "bool",
          "name": "_contract_is_active",
          "type": "bool"
        }
      ],
      "name": "isActive",
      "outputs": [
        {
          "internalType": "bool",
          "name": "",
          "type": "bool"
        }
      ],
      "stateMutability": "nonpayable",
      "type": "function"
    },
    {
      "inputs": [],
      "name": "maxiumuSupply",
      "outputs": [
        {
          "internalType": "uint256",
          "name": "",
          "type": "uint256"
        }
      ],
      "stateMutability": "view",
      "type": "function"
    },
    {
      "inputs": [
        {
          "internalType": "address",
          "name": "governance_address",
          "type": "address"
        }
      ],
      "name": "setGovernanceContract",
      "outputs": [
        {
          "internalType": "bool",
          "name": "",
          "type": "bool"
        }
      ],
      "stateMutability": "nonpayable",
      "type": "function"
    },
    {
      "inputs": [
        {
          "internalType": "address",
          "name": "bank_addres",
          "type": "address"
        }
      ],
      "name": "setBankContract",
      "outputs": [
        {
          "internalType": "bool",
          "name": "",
          "type": "bool"
        }
      ],
      "stateMutability": "nonpayable",
      "type": "function"
    },
    {
      "inputs": [
        {
          "internalType": "address",
          "name": "_to",
          "type": "address"
        },
        {
          "internalType": "uint256",
          "name": "_amount",
          "type": "uint256"
        }
      ],
      "name": "mint",
      "outputs": [
        {
          "internalType": "bool",
          "name": "",
          "type": "bool"
        }
      ],
      "stateMutability": "nonpayable",
      "type": "function"
    },
    {
      "inputs": [
        {
          "internalType": "address",
          "name": "_from",
          "type": "address"
        },
        {
          "internalType": "address",
          "name": "_to",
          "type": "address"
        },
        {
          "internalType": "uint256",
          "name": "_amount",
          "type": "uint256"
        }
      ],
      "name": "bankTransfer",
      "outputs": [
        {
          "internalType": "bool",
          "name": "",
          "type": "bool"
        }
      ],
      "stateMutability": "nonpayable",
      "type": "function"
    },
    {
      "inputs": [],
      "name": "name",
      "outputs": [
        {
          "internalType": "string",
          "name": "",
          "type": "string"
        }
      ],
      "stateMutability": "view",
      "type": "function"
    },
    {
      "inputs": [],
      "name": "symbol",
      "outputs": [
        {
          "internalType": "string",
          "name": "",
          "type": "string"
        }
      ],
      "stateMutability": "view",
      "type": "function"
    },
    {
      "inputs": [],
      "name": "decimals",
      "outputs": [
        {
          "internalType": "uint8",
          "name": "",
          "type": "uint8"
        }
      ],
      "stateMutability": "view",
      "type": "function"
    }
  ],
  "bytecode": "0x60806040523480156200001157600080fd5b506040516200147d3803806200147d833981810160405260208110156200003757600080fd5b505160408051808201909152600c8082526b29b4b3b6b7b4b22a37b5b2b760a11b60209092019182526200006e91600491620000ec565b506040805180820190915260038082526253474d60e81b60209092019182526200009b91600591620000ec565b506006805460ff19166012179055600780546001600160a01b0319908116331790915569d3c21bcecceda1000000600355600880546001600160a01b03939093169290911691909117905562000191565b828054600181600116156101000203166002900490600052602060002090601f016020900481019282601f106200012f57805160ff19168380011785556200015f565b828001600101855582156200015f579182015b828111156200015f57825182559160200191906001019062000142565b506200016d92915062000171565b5090565b6200018e91905b808211156200016d576000815560010162000178565b90565b6112dc80620001a16000396000f3fe608060405234801561001057600080fd5b506004361061018d5760003560e01c80637abb8efb116100e3578063a457c2d71161008c578063d351b5fd11610066578063d351b5fd146104e4578063dd62ed3e14610517578063f19f61d1146105525761018d565b8063a457c2d714610453578063a9059cbb1461048c578063cd4c551a146104c55761018d565b8063911ffd0d116100bd578063911ffd0d1461043b5780639584d85e1461044357806395d89b411461044b5761018d565b80637abb8efb146103bf5780638581923f146103f057806385db2f30146103f85761018d565b8063313ce5671161014557806340c10f191161011f57806340c10f191461034b57806370a0823114610384578063731778f2146103b75761018d565b8063313ce567146102ec578063395093511461030a5780633eaaf86b146103435761018d565b80631129753f116101765780631129753f1461025c57806318160ddd1461028f57806323b872dd146102a95761018d565b806306fdde0314610192578063095ea7b31461020f575b600080fd5b61019a61055a565b6040805160208082528351818301528351919283929083019185019080838360005b838110156101d45781810151838201526020016101bc565b50505050905090810190601f1680156102015780820380516001836020036101000a031916815260200191505b509250505060405180910390f35b6102486004803603604081101561022557600080fd5b5073ffffffffffffffffffffffffffffffffffffffff813516906020013561060e565b604080519115158252519081900360200190f35b6102486004803603602081101561027257600080fd5b503573ffffffffffffffffffffffffffffffffffffffff16610624565b610297610695565b60408051918252519081900360200190f35b610248600480360360608110156102bf57600080fd5b5073ffffffffffffffffffffffffffffffffffffffff81358116916020810135909116906040013561069b565b6102f4610717565b6040805160ff9092168252519081900360200190f35b6102486004803603604081101561032057600080fd5b5073ffffffffffffffffffffffffffffffffffffffff8135169060200135610720565b610297610769565b6102486004803603604081101561036157600080fd5b5073ffffffffffffffffffffffffffffffffffffffff813516906020013561076f565b6102976004803603602081101561039a57600080fd5b503573ffffffffffffffffffffffffffffffffffffffff16610868565b610297610890565b6103c7610896565b6040805173ffffffffffffffffffffffffffffffffffffffff9092168252519081900360200190f35b6103c76108b2565b6102486004803603606081101561040e57600080fd5b5073ffffffffffffffffffffffffffffffffffffffff8135811691602081013590911690604001356108d3565b610248610a03565b6103c7610a24565b61019a610a40565b6102486004803603604081101561046957600080fd5b5073ffffffffffffffffffffffffffffffffffffffff8135169060200135610abf565b610248600480360360408110156104a257600080fd5b5073ffffffffffffffffffffffffffffffffffffffff8135169060200135610b21565b610248600480360360208110156104db57600080fd5b50351515610b2e565b610248600480360360208110156104fa57600080fd5b503573ffffffffffffffffffffffffffffffffffffffff16610b7d565b6102976004803603604081101561052d57600080fd5b5073ffffffffffffffffffffffffffffffffffffffff81358116916020013516610bf2565b610297610c2a565b60048054604080516020601f60027fffffffffffffffffffffffffffffffffffffffffffffffffffffffffffffffff6101006001881615020190951694909404938401819004810282018101909252828152606093909290918301828280156106045780601f106105d957610100808354040283529160200191610604565b820191906000526020600020905b8154815290600101906020018083116105e757829003601f168201915b5050505050905090565b600061061b338484610c30565b50600192915050565b60085460009073ffffffffffffffffffffffffffffffffffffffff16331461064b57600080fd5b506008805473ffffffffffffffffffffffffffffffffffffffff83167fffffffffffffffffffffffff00000000000000000000000000000000000000009091161790556001919050565b60025490565b600061070284336106fd856040518060600160405280602881526020016112116028913973ffffffffffffffffffffffffffffffffffffffff8a166000908152600160209081526040808320338452909152902054919063ffffffff610d7716565b610c30565b61070d848484610e28565b5060019392505050565b60065460ff1690565b33600081815260016020908152604080832073ffffffffffffffffffffffffffffffffffffffff87168452909152812054909161061b9185906106fd908663ffffffff610ff916565b60025481565b60085460009074010000000000000000000000000000000000000000900460ff16151560011461079e57600080fd5b600654610100900473ffffffffffffffffffffffffffffffffffffffff163314806107e0575060085473ffffffffffffffffffffffffffffffffffffffff1633145b6107e957600080fd5b6003546002548301111561085e57604080517f08c379a000000000000000000000000000000000000000000000000000000000815260206004820152601560248201527f63616e206e6f74206d696e74206d6f72652053474d0000000000000000000000604482015290519081900360640190fd5b61061b8383611074565b73ffffffffffffffffffffffffffffffffffffffff1660009081526020819052604090205490565b60035490565b60075473ffffffffffffffffffffffffffffffffffffffff1681565b600654610100900473ffffffffffffffffffffffffffffffffffffffff1681565b60085460009074010000000000000000000000000000000000000000900460ff16151560011461090257600080fd5b600654610100900473ffffffffffffffffffffffffffffffffffffffff16331461092b57600080fd5b73ffffffffffffffffffffffffffffffffffffffff8416610997576040517f08c379a00000000000000000000000000000000000000000000000000000000081526004018080602001828103825260258152602001806112396025913960400191505060405180910390fd5b73ffffffffffffffffffffffffffffffffffffffff8316610702576040517f08c379a00000000000000000000000000000000000000000000000000000000081526004018080602001828103825260238152602001806111a66023913960400191505060405180910390fd5b60085474010000000000000000000000000000000000000000900460ff1681565b60085473ffffffffffffffffffffffffffffffffffffffff1681565b60058054604080516020601f60027fffffffffffffffffffffffffffffffffffffffffffffffffffffffffffffffff6101006001881615020190951694909404938401819004810282018101909252828152606093909290918301828280156106045780601f106105d957610100808354040283529160200191610604565b600061061b33846106fd856040518060600160405280602581526020016112826025913933600090815260016020908152604080832073ffffffffffffffffffffffffffffffffffffffff8d168452909152902054919063ffffffff610d7716565b600061061b338484610e28565b600880547fffffffffffffffffffffff00ffffffffffffffffffffffffffffffffffffffff16740100000000000000000000000000000000000000009215158302179081905560ff9190041690565b60085460009073ffffffffffffffffffffffffffffffffffffffff163314610ba457600080fd5b506006805473ffffffffffffffffffffffffffffffffffffffff8316610100027fffffffffffffffffffffff0000000000000000000000000000000000000000ff9091161790556001919050565b73ffffffffffffffffffffffffffffffffffffffff918216600090815260016020908152604080832093909416825291909152205490565b60035481565b73ffffffffffffffffffffffffffffffffffffffff8316610c9c576040517f08c379a000000000000000000000000000000000000000000000000000000000815260040180806020018281038252602481526020018061125e6024913960400191505060405180910390fd5b73ffffffffffffffffffffffffffffffffffffffff8216610d08576040517f08c379a00000000000000000000000000000000000000000000000000000000081526004018080602001828103825260228152602001806111c96022913960400191505060405180910390fd5b73ffffffffffffffffffffffffffffffffffffffff808416600081815260016020908152604080832094871680845294825291829020859055815185815291517f8c5be1e5ebec7d5bd14f71427d1e84f3dd0314c0f7b2291e5b200ac8c7c3b9259281900390910190a3505050565b60008184841115610e20576040517f08c379a00000000000000000000000000000000000000000000000000000000081526004018080602001828103825283818151815260200191508051906020019080838360005b83811015610de5578181015183820152602001610dcd565b50505050905090810190601f168015610e125780820380516001836020036101000a031916815260200191505b509250505060405180910390fd5b505050900390565b73ffffffffffffffffffffffffffffffffffffffff8316610e94576040517f08c379a00000000000000000000000000000000000000000000000000000000081526004018080602001828103825260258152602001806112396025913960400191505060405180910390fd5b73ffffffffffffffffffffffffffffffffffffffff8216610f00576040517f08c379a00000000000000000000000000000000000000000000000000000000081526004018080602001828103825260238152602001806111a66023913960400191505060405180910390fd5b610f50816040518060600160405280602681526020016111eb6026913973ffffffffffffffffffffffffffffffffffffffff8616600090815260208190526040902054919063ffffffff610d7716565b73ffffffffffffffffffffffffffffffffffffffff8085166000908152602081905260408082209390935590841681522054610f92908263ffffffff610ff916565b73ffffffffffffffffffffffffffffffffffffffff8084166000818152602081815260409182902094909455805185815290519193928716927fddf252ad1be2c89b69c2b068fc378daa952ba7f163c4a11628f55a4df523b3ef92918290030190a3505050565b60008282018381101561106d57604080517f08c379a000000000000000000000000000000000000000000000000000000000815260206004820152601b60248201527f536166654d6174683a206164646974696f6e206f766572666c6f770000000000604482015290519081900360640190fd5b9392505050565b73ffffffffffffffffffffffffffffffffffffffff82166110f657604080517f08c379a000000000000000000000000000000000000000000000000000000000815260206004820152601f60248201527f45524332303a206d696e7420746f20746865207a65726f206164647265737300604482015290519081900360640190fd5b600254611109908263ffffffff610ff916565b60025573ffffffffffffffffffffffffffffffffffffffff8216600090815260208190526040902054611142908263ffffffff610ff916565b73ffffffffffffffffffffffffffffffffffffffff83166000818152602081815260408083209490945583518581529351929391927fddf252ad1be2c89b69c2b068fc378daa952ba7f163c4a11628f55a4df523b3ef9281900390910190a3505056fe45524332303a207472616e7366657220746f20746865207a65726f206164647265737345524332303a20617070726f766520746f20746865207a65726f206164647265737345524332303a207472616e7366657220616d6f756e7420657863656564732062616c616e636545524332303a207472616e7366657220616d6f756e74206578636565647320616c6c6f77616e636545524332303a207472616e736665722066726f6d20746865207a65726f206164647265737345524332303a20617070726f76652066726f6d20746865207a65726f206164647265737345524332303a2064656372656173656420616c6c6f77616e63652062656c6f77207a65726fa2646970667358221220cd85be7e8c5268351b2ef172b7e451ee7370f672fc5ed2e183e87791a0647a1264736f6c63430006020033",
  "source": "pragma solidity ^0.6.2;\n// SPDX-License-Identifier: apache 2.0\n/*\n    Copyright 2020 Sigmoid Foundation <info@SGM.finance>\n    Licensed under the Apache License, Version 2.0 (the \"License\");\n    you may not use this file except in compliance with the License.\n    You may obtain a copy of the License at\n    http://www.apache.org/licenses/LICENSE-2.0\n    Unless required by applicable law or agreed to in writing, software\n    distributed under the License is distributed on an \"AS IS\" BASIS,\n    WITHOUT WARRANTIES OR CONDITIONS OF ANY KIND, either express or implied.\n    See the License for the specific language governing permissions and\n    limitations under the License.\n*/\n\nlibrary SafeMath {\n   \n    function add(uint256 a, uint256 b) internal pure returns (uint256) {\n        uint256 c = a + b;\n        require(c >= a, \"SafeMath: addition overflow\");\n\n        return c;\n    }\n\n    function sub(uint256 a, uint256 b) internal pure returns (uint256) {\n        return sub(a, b, \"SafeMath: subtraction overflow\");\n    }\n\n    function sub(uint256 a, uint256 b, string memory errorMessage) internal pure returns (uint256) {\n        require(b <= a, errorMessage);\n        uint256 c = a - b;\n\n        return c;\n    }\n\n    function mul(uint256 a, uint256 b) internal pure returns (uint256) {\n       \n        if (a == 0) {\n            return 0;\n        }\n\n        uint256 c = a * b;\n        require(c / a == b, \"SafeMath: multiplication overflow\");\n\n        return c;\n    }\n\n  \n    function div(uint256 a, uint256 b) internal pure returns (uint256) {\n        return div(a, b, \"SafeMath: division by zero\");\n    }\n\n    function div(uint256 a, uint256 b, string memory errorMessage) internal pure returns (uint256) {\n        require(b > 0, errorMessage);\n        uint256 c = a / b;\n      \n\n        return c;\n    }\n\n    function mod(uint256 a, uint256 b) internal pure returns (uint256) {\n        return mod(a, b, \"SafeMath: modulo by zero\");\n    }\n\n    function mod(uint256 a, uint256 b, string memory errorMessage) internal pure returns (uint256) {\n        require(b != 0, errorMessage);\n        return a % b;\n    }\n}\n\ninterface IERC659 {\n    function setBond(uint256 class, address  bank_contract, uint256 Fibonacci_number, uint256 Fibonacci_epoch) external returns (bool);\n    function totalSupply( uint256 class, uint256 nonce) external view returns (uint256);\n    function activeSupply( uint256 class, uint256 nonce) external view returns (uint256);\n    function burnedSupply( uint256 class, uint256 nonce) external view returns (uint256);\n    function redeemedSupply(  uint256 class, uint256 nonce) external  view  returns (uint256);\n    \n    function balanceOf(address account, uint256 class, uint256 nonce) external view returns (uint256);\n    function getBondSymbol(uint256 class) view external returns (string memory);\n    function getBondInfo(uint256 class, uint256 nonce) external view returns (uint256 timestamp,uint256 info2, uint256 info3, uint256 info4, uint256 info5,uint256 info6);\n    function bondIsRedeemable(uint256 class, uint256 nonce) external view returns (bool);\n    \n \n    function issueBond(address _to, uint256  class, uint256 _amount) external returns(bool);\n    function redeemBond(address _from, uint256 class, uint256[] calldata nonce, uint256[] calldata  _amount) external returns(bool);\n    function transferBond(address _from, address _to, uint256[] calldata class, uint256[] calldata nonce, uint256[] calldata _amount) external returns(bool);\n    function burnBond(address _from, uint256[] calldata class, uint256[] calldata nonce, uint256[] calldata _amount) external returns(bool);\n    \n    event eventIssueBond(address _operator, address _to, uint256 class, uint256 nonce, uint256 _amount); \n    event eventRedeemBond(address _operator, address _from, uint256 class, uint256 nonce, uint256 _amount);\n    event eventBurnBond(address _operator, address _from, uint256 class, uint256 nonce, uint256 _amount);\n    event eventTransferBond(address _operator, address _from, address _to, uint256 class, uint256 nonce, uint256 _amount);\n}\n\ninterface IERC20 {\n    /**\n     * @dev Returns the amount of tokens in existence.\n     */\n    function totalSupply() external view returns (uint256);\n\n    /**\n     * @dev Returns the amount of tokens owned by `account`.\n     */\n    function balanceOf(address account) external view returns (uint256);\n\n    /**\n     * @dev Moves `amount` tokens from the caller's account to `recipient`.\n     *\n     * Returns a boolean value indicating whether the operation succeeded.\n     *\n     * Emits a {Transfer} event.\n     */\n    function transfer(address recipient, uint256 amount) external returns (bool);\n\n    /**\n     * @dev Returns the remaining number of tokens that `spender` will be\n     * allowed to spend on behalf of `owner` through {transferFrom}. This is\n     * zero by default.\n     *\n     * This value changes when {approve} or {transferFrom} are called.\n     */\n    function allowance(address owner, address spender) external view returns (uint256);\n\n    /**\n     * @dev Sets `amount` as the allowance of `spender` over the caller's tokens.\n     *\n     * Returns a boolean value indicating whether the operation succeeded.\n     *\n     * IMPORTANT: Beware that changing an allowance with this method brings the risk\n     * that someone may use both the old and the new allowance by unfortunate\n     * transaction ordering. One possible solution to mitigate this race\n     * condition is to first reduce the spender's allowance to 0 and set the\n     * desired value afterwards:\n     * https://github.com/ethereum/EIPs/issues/20#issuecomment-263524729\n     *\n     * Emits an {Approval} event.\n     */\n    function approve(address spender, uint256 amount) external returns (bool);\n\n    /**\n     * @dev Moves `amount` tokens from `sender` to `recipient` using the\n     * allowance mechanism. `amount` is then deducted from the caller's\n     * allowance.\n     *\n     * Returns a boolean value indicating whether the operation succeeded.\n     *\n     * Emits a {Transfer} event.\n     */\n    function transferFrom(address sender, address recipient, uint256 amount) external returns (bool);\n\n    /**\n     * @dev Emitted when `value` tokens are moved from one account (`from`) to\n     * another (`to`).\n     *\n     * Note that `value` may be zero.\n     */\n    event Transfer(address indexed from, address indexed to, uint256 value);\n\n    /**\n     * @dev Emitted when the allowance of a `spender` for an `owner` is set by\n     * a call to {approve}. `value` is the new allowance.\n     */\n    event Approval(address indexed owner, address indexed spender, uint256 value);\n}\n\ninterface ISigmoidTokens {\n    function isActive(bool _contract_is_active) external returns (bool);\n    function maxiumuSupply() external view returns (uint256);\n    function setGovernanceContract(address governance_address) external returns (bool);\n    function setBankContract(address bank_address) external returns (bool);\n    function mint(address _to, uint256 _amount) external returns (bool);\n    function bankTransfer(address _from, address _to, uint256 _amount) external returns (bool);\n}\n\ncontract ERC20 is IERC20 {\n    using SafeMath for uint256;\n\n    mapping (address => uint256) private _balances;\n\n    mapping (address => mapping (address => uint256)) private _allowances;\n\n    uint256 public _totalSupply;\n    uint256 public _maxiumuSupply;\n\n    /**\n     * @dev See {IERC20-totalSupply}.\n     */\n    function totalSupply() public override view returns (uint256) {\n        return _totalSupply;\n    }\n\n    /**\n     * @dev See {IERC20-balanceOf}.\n     */\n    function balanceOf(address account) public override view returns (uint256) {\n        return _balances[account];\n    }\n\n    /**\n     * @dev See {IERC20-transfer}.\n     *\n     * Requirements:\n     *\n     * - `recipient` cannot be the zero address.\n     * - the caller must have a balance of at least `amount`.\n     */\n    function transfer(address recipient, uint256 amount) public override returns (bool) {\n        _transfer(msg.sender, recipient, amount);\n        return true;\n    }\n\n    /**\n     * @dev See {IERC20-allowance}.\n     */\n    function allowance(address owner, address spender) public override view returns (uint256) {\n        return _allowances[owner][spender];\n    }\n\n    /**\n     * @dev See {IERC20-approve}.\n     *\n     * Requirements:\n     *\n     * - `spender` cannot be the zero address.\n     */\n    function approve(address spender, uint256 amount) public override returns (bool) {\n        _approve(msg.sender, spender, amount);\n        return true;\n    }\n\n    /**\n     * @dev See {IERC20-transferFrom}.\n     *\n     * Emits an {Approval} event indicating the updated allowance. This is not\n     * required by the EIP. See the note at the beginning of {ERC20};\n     *\n     * Requirements:\n     * - `sender` and `recipient` cannot be the zero address.\n     * - `sender` must have a balance of at least `amount`.\n     * - the caller must have allowance for `sender`'s tokens of at least\n     * `amount`.\n     */\n    function transferFrom(address sender, address recipient, uint256 amount) public override returns (bool) {\n        _approve(sender, msg.sender, _allowances[sender][msg.sender].sub(amount, \"ERC20: transfer amount exceeds allowance\"));\n        _transfer(sender, recipient, amount);\n        return true;\n    }\n\n    /**\n     * @dev Atomically increases the allowance granted to `spender` by the caller.\n     *\n     * This is an alternative to {approve} that can be used as a mitigation for\n     * problems described in {IERC20-approve}.\n     *\n     * Emits an {Approval} event indicating the updated allowance.\n     *\n     * Requirements:\n     *\n     * - `spender` cannot be the zero address.\n     */\n    function increaseAllowance(address spender, uint256 addedValue) public returns (bool) {\n        _approve(msg.sender, spender, _allowances[msg.sender][spender].add(addedValue));\n        return true;\n    }\n\n    /**\n     * @dev Atomically decreases the allowance granted to `spender` by the caller.\n     *\n     * This is an alternative to {approve} that can be used as a mitigation for\n     * problems described in {IERC20-approve}.\n     *\n     * Emits an {Approval} event indicating the updated allowance.\n     *\n     * Requirements:\n     *\n     * - `spender` cannot be the zero address.\n     * - `spender` must have allowance for the caller of at least\n     * `subtractedValue`.\n     */\n    function decreaseAllowance(address spender, uint256 subtractedValue) public returns (bool) {\n        _approve(msg.sender, spender, _allowances[msg.sender][spender].sub(subtractedValue, \"ERC20: decreased allowance below zero\"));\n        return true;\n    }\n\n    /**\n     * @dev Moves tokens `amount` from `sender` to `recipient`.\n     *\n     * This is internal function is equivalent to {transfer}, and can be used to\n     * e.g. implement automatic token fees, slashing mechanisms, etc.\n     *\n     * Emits a {Transfer} event.\n     *\n     * Requirements:\n     *\n     * - `sender` cannot be the zero address.\n     * - `recipient` cannot be the zero address.\n     * - `sender` must have a balance of at least `amount`.\n     */\n    function _transfer(address sender, address recipient, uint256 amount) internal {\n        require(sender != address(0), \"ERC20: transfer from the zero address\");\n        require(recipient != address(0), \"ERC20: transfer to the zero address\");\n\n        _balances[sender] = _balances[sender].sub(amount, \"ERC20: transfer amount exceeds balance\");\n        _balances[recipient] = _balances[recipient].add(amount);\n        emit Transfer(sender, recipient, amount);\n    }\n\n    /** @dev Creates `amount` tokens and assigns them to `account`, increasing\n     * the total supply.\n     *\n     * Emits a {Transfer} event with `from` set to the zero address.\n     *\n     * Requirements\n     *\n     * - `to` cannot be the zero address.\n     */\n    function _mint(address account, uint256 amount) internal {\n        require(account != address(0), \"ERC20: mint to the zero address\");\n\n        _totalSupply = _totalSupply.add(amount);\n        _balances[account] = _balances[account].add(amount);\n        emit Transfer(address(0), account, amount);\n    }\n\n    /**\n     * @dev Destroys `amount` tokens from `account`, reducing the\n     * total supply.\n     *\n     * Emits a {Transfer} event with `to` set to the zero address.\n     *\n     * Requirements\n     *\n     * - `account` cannot be the zero address.\n     * - `account` must have at least `amount` tokens.\n     */\n    function _burn(address account, uint256 amount) internal {\n        require(account != address(0), \"ERC20: burn from the zero address\");\n\n        _balances[account] = _balances[account].sub(amount, \"ERC20: burn amount exceeds balance\");\n        _totalSupply = _totalSupply.sub(amount);\n        emit Transfer(account, address(0), amount);\n    }\n\n    /**\n     * @dev Sets `amount` as the allowance of `spender` over the `owner`s tokens.\n     *\n     * This is internal function is equivalent to `approve`, and can be used to\n     * e.g. set automatic allowances for certain subsystems, etc.\n     *\n     * Emits an {Approval} event.\n     *\n     * Requirements:\n     *\n     * - `owner` cannot be the zero address.\n     * - `spender` cannot be the zero address.\n     */\n    function _approve(address owner, address spender, uint256 amount) internal {\n        require(owner != address(0), \"ERC20: approve from the zero address\");\n        require(spender != address(0), \"ERC20: approve to the zero address\");\n\n        _allowances[owner][spender] = amount;\n        emit Approval(owner, spender, amount);\n    }\n\n    /**\n     * @dev Destroys `amount` tokens from `account`.`amount` is then deducted\n     * from the caller's allowance.\n     *\n     * See {_burn} and {_approve}.\n     */\n    function _burnFrom(address account, uint256 amount) internal {\n        _burn(account, amount);\n        _approve(account, msg.sender, _allowances[account][msg.sender].sub(amount, \"ERC20: burn amount exceeds allowance\"));\n    }\n}\n\ncontract SGM is ERC20{\n    string private _name;\n    string private _symbol;\n    uint8 private _decimals;\n    address public bank_contract;\n    address public dev_address;\n    address public governance_contract;\n    bool public contract_is_active;\n    /**\n     * @dev Sets the values for `name`, `symbol`, and `decimals`. All three of\n     * these values are immutable: they can only be set once during\n     * construction.\n     */\n    constructor (address governance_address ) public {\n        _name = \"SigmoidToken\";\n        _symbol = \"SGM\";\n        _decimals = 18;\n        dev_address = msg.sender;\n        _maxiumuSupply = 1e24;\n        governance_contract = governance_address;\n    }\n    \n    function isActive(bool _contract_is_active) public returns (bool){\n         contract_is_active = _contract_is_active;\n         return(contract_is_active);\n     }\n         \n    function maxiumuSupply() public view returns (uint256) {\n        return(_maxiumuSupply);\n    }\n\n    function setGovernanceContract(address governance_address) public returns (bool) {\n        require(msg.sender == governance_contract);\n        governance_contract = governance_address;\n        return(true);\n        \n    }\n\n    function setBankContract(address bank_addres) public returns (bool) {\n        require(msg.sender == governance_contract);\n        bank_contract = bank_addres;\n        return(true);\n    }\n    \n    function mint(address _to, uint256 _amount) public returns (bool) {\n        require(contract_is_active == true);\n        require(msg.sender==bank_contract || msg.sender==governance_contract );\n        require(_amount+_totalSupply<=_maxiumuSupply,'can not mint more SGM');\n        _mint(_to, _amount);\n        return(true);\n    }\n    \n    function bankTransfer(address _from, address _to, uint256 _amount) public returns (bool){\n        require(contract_is_active == true);\n        require(msg.sender==bank_contract); \n        require(_from != address(0), \"ERC20: transfer from the zero address\");\n        require(_to != address(0), \"ERC20: transfer to the zero address\");\n        _transfer(_from, _to, _amount);\n        return(true);\n    }\n    \n    function name() public view returns (string memory) {\n        return _name;\n    }\n\n    /**\n     * @dev Returns the symbol of the token, usually a shorter version of the\n     * name.\n     */\n    function symbol() public view returns (string memory) {\n        return _symbol;\n    }\n\n    /**\n     * @dev Returns the number of decimals used to get its user representation.\n     * For example, if `decimals` equals `2`, a balance of `505` tokens should\n     * be displayed to a user as `5,05` (`505 / 10 ** 2`).\n     *\n     * Tokens usually opt for a value of 18, imitating the relationship between\n     * Ether and Wei.\n     *\n     * NOTE: This information is only used for _display_ purposes: it in\n     * no way affects any of the arithmetic of the contract, including\n     * {IERC20-balanceOf} and {IERC20-transfer}.\n     */\n    function decimals() public view returns (uint8) {\n        return _decimals;\n    }\n}    \n",
  "sourcePath": "D://workGroup/contracts/SGMtoken.sol",
  "compiler": {
    "name": "solc",
    "version": "0.6.2+commit.bacdbe57.Emscripten.clang"
  },
  "schemaVersion": "3.3.3",
  "updatedAt": "2021-04-19T14:54:14.443Z",
  "devdoc": {
    "methods": {
      "allowance(address,address)": {
        "details": "See {IERC20-allowance}."
      },
      "approve(address,uint256)": {
        "details": "See {IERC20-approve}.     * Requirements:     * - `spender` cannot be the zero address."
      },
      "balanceOf(address)": {
        "details": "See {IERC20-balanceOf}."
      },
      "constructor": {
        "details": "Sets the values for `name`, `symbol`, and `decimals`. All three of these values are immutable: they can only be set once during construction."
      },
      "decimals()": {
        "details": "Returns the number of decimals used to get its user representation. For example, if `decimals` equals `2`, a balance of `505` tokens should be displayed to a user as `5,05` (`505 / 10 ** 2`).     * Tokens usually opt for a value of 18, imitating the relationship between Ether and Wei.     * NOTE: This information is only used for _display_ purposes: it in no way affects any of the arithmetic of the contract, including {IERC20-balanceOf} and {IERC20-transfer}."
      },
      "decreaseAllowance(address,uint256)": {
        "details": "Atomically decreases the allowance granted to `spender` by the caller.     * This is an alternative to {approve} that can be used as a mitigation for problems described in {IERC20-approve}.     * Emits an {Approval} event indicating the updated allowance.     * Requirements:     * - `spender` cannot be the zero address. - `spender` must have allowance for the caller of at least `subtractedValue`."
      },
      "increaseAllowance(address,uint256)": {
        "details": "Atomically increases the allowance granted to `spender` by the caller.     * This is an alternative to {approve} that can be used as a mitigation for problems described in {IERC20-approve}.     * Emits an {Approval} event indicating the updated allowance.     * Requirements:     * - `spender` cannot be the zero address."
      },
      "symbol()": {
        "details": "Returns the symbol of the token, usually a shorter version of the name."
      },
      "totalSupply()": {
        "details": "See {IERC20-totalSupply}."
      },
      "transfer(address,uint256)": {
        "details": "See {IERC20-transfer}.     * Requirements:     * - `recipient` cannot be the zero address. - the caller must have a balance of at least `amount`."
      },
      "transferFrom(address,address,uint256)": {
        "details": "See {IERC20-transferFrom}.     * Emits an {Approval} event indicating the updated allowance. This is not required by the EIP. See the note at the beginning of {ERC20};     * Requirements: - `sender` and `recipient` cannot be the zero address. - `sender` must have a balance of at least `amount`. - the caller must have allowance for `sender`'s tokens of at least `amount`."
      }
    }
  },
  "userdoc": {
    "methods": {}
  }
}