{
  "contractName": "SigmoidBank",
  "abi": [
    {
      "inputs": [
        {
          "internalType": "address",
          "name": "SASH_Contract",
          "type": "address"
        },
        {
          "internalType": "address",
          "name": "SGM_Contract",
          "type": "address"
        },
        {
          "internalType": "address",
          "name": "governance_address",
          "type": "address"
        },
        {
          "internalType": "address",
          "name": "swapFactoryAddress",
          "type": "address"
        }
      ],
      "stateMutability": "nonpayable",
      "type": "constructor"
    },
    {
      "inputs": [],
      "name": "SASH_contract",
      "outputs": [
        {
          "internalType": "address",
          "name": "",
          "type": "address"
        }
      ],
      "stateMutability": "view",
      "type": "function"
    },
    {
      "inputs": [],
      "name": "SGM_contract",
      "outputs": [
        {
          "internalType": "address",
          "name": "",
          "type": "address"
        }
      ],
      "stateMutability": "view",
      "type": "function"
    },
    {
      "inputs": [],
      "name": "SwapFactoryAddress",
      "outputs": [
        {
          "internalType": "address",
          "name": "",
          "type": "address"
        }
      ],
      "stateMutability": "view",
      "type": "function"
    },
    {
      "inputs": [],
      "name": "SwapRouterAddress",
      "outputs": [
        {
          "internalType": "address",
          "name": "",
          "type": "address"
        }
      ],
      "stateMutability": "view",
      "type": "function"
    },
    {
      "inputs": [
        {
          "internalType": "uint256",
          "name": "",
          "type": "uint256"
        }
      ],
      "name": "USD_token_list",
      "outputs": [
        {
          "internalType": "address",
          "name": "",
          "type": "address"
        }
      ],
      "stateMutability": "view",
      "type": "function"
    },
    {
      "inputs": [],
      "name": "bank_contract",
      "outputs": [
        {
          "internalType": "address",
          "name": "",
          "type": "address"
        }
      ],
      "stateMutability": "view",
      "type": "function"
    },
    {
      "inputs": [],
      "name": "bond_contract",
      "outputs": [
        {
          "internalType": "address",
          "name": "",
          "type": "address"
        }
      ],
      "stateMutability": "view",
      "type": "function"
    },
    {
      "inputs": [],
      "name": "contract_is_active",
      "outputs": [
        {
          "internalType": "bool",
          "name": "",
          "type": "bool"
        }
      ],
      "stateMutability": "view",
      "type": "function"
    },
    {
      "inputs": [],
      "name": "dev_address",
      "outputs": [
        {
          "internalType": "address",
          "name": "",
          "type": "address"
        }
      ],
      "stateMutability": "view",
      "type": "function"
    },
    {
      "inputs": [],
      "name": "governance_contract",
      "outputs": [
        {
          "internalType": "address",
          "name": "",
          "type": "address"
        }
      ],
      "stateMutability": "view",
      "type": "function"
    },
    {
      "inputs": [
        {
          "internalType": "uint256",
          "name": "",
          "type": "uint256"
        }
      ],
      "name": "token_contract",
      "outputs": [
        {
          "internalType": "address",
          "name": "",
          "type": "address"
        }
      ],
      "stateMutability": "view",
      "type": "function"
    },
    {
      "inputs": [
        {
          "internalType": "bool",
          "name": "_contract_is_active",
          "type": "bool"
        }
      ],
      "name": "isActive",
      "outputs": [
        {
          "internalType": "bool",
          "name": "",
          "type": "bool"
        }
      ],
      "stateMutability": "nonpayable",
      "type": "function"
    },
    {
      "inputs": [
        {
          "internalType": "address",
          "name": "governance_address",
          "type": "address"
        }
      ],
      "name": "setGovernanceContract",
      "outputs": [
        {
          "internalType": "bool",
          "name": "",
          "type": "bool"
        }
      ],
      "stateMutability": "nonpayable",
      "type": "function"
    },
    {
      "inputs": [
        {
          "internalType": "address",
          "name": "bank_address",
          "type": "address"
        }
      ],
      "name": "setBankContract",
      "outputs": [
        {
          "internalType": "bool",
          "name": "",
          "type": "bool"
        }
      ],
      "stateMutability": "nonpayable",
      "type": "function"
    },
    {
      "inputs": [
        {
          "internalType": "address",
          "name": "bond_address",
          "type": "address"
        }
      ],
      "name": "setBondContract",
      "outputs": [
        {
          "internalType": "bool",
          "name": "",
          "type": "bool"
        }
      ],
      "stateMutability": "nonpayable",
      "type": "function"
    },
    {
      "inputs": [
        {
          "internalType": "uint256",
          "name": "class",
          "type": "uint256"
        },
        {
          "internalType": "address",
          "name": "contract_address",
          "type": "address"
        }
      ],
      "name": "setTokenContract",
      "outputs": [
        {
          "internalType": "bool",
          "name": "",
          "type": "bool"
        }
      ],
      "stateMutability": "nonpayable",
      "type": "function"
    },
    {
      "inputs": [
        {
          "internalType": "address",
          "name": "contract_address",
          "type": "address"
        }
      ],
      "name": "checkIntheList",
      "outputs": [
        {
          "internalType": "bool",
          "name": "",
          "type": "bool"
        }
      ],
      "stateMutability": "view",
      "type": "function"
    },
    {
      "inputs": [
        {
          "internalType": "address",
          "name": "contract_address",
          "type": "address"
        }
      ],
      "name": "addStablecoinToList",
      "outputs": [
        {
          "internalType": "bool",
          "name": "",
          "type": "bool"
        }
      ],
      "stateMutability": "nonpayable",
      "type": "function"
    },
    {
      "inputs": [
        {
          "internalType": "address",
          "name": "_to",
          "type": "address"
        },
        {
          "internalType": "address",
          "name": "tokenA",
          "type": "address"
        },
        {
          "internalType": "address",
          "name": "tokenB",
          "type": "address"
        }
      ],
      "name": "migratorLP",
      "outputs": [
        {
          "internalType": "bool",
          "name": "",
          "type": "bool"
        }
      ],
      "stateMutability": "nonpayable",
      "type": "function"
    },
    {
      "inputs": [
        {
          "internalType": "uint256",
          "name": "power_root",
          "type": "uint256"
        },
        {
          "internalType": "uint256",
          "name": "num",
          "type": "uint256"
        },
        {
          "internalType": "uint256",
          "name": "num_decimals",
          "type": "uint256"
        }
      ],
      "name": "powerX",
      "outputs": [
        {
          "internalType": "uint256",
          "name": "",
          "type": "uint256"
        }
      ],
      "stateMutability": "pure",
      "type": "function"
    },
    {
      "inputs": [
        {
          "internalType": "uint256",
          "name": "log_root",
          "type": "uint256"
        },
        {
          "internalType": "uint256",
          "name": "log_decimals",
          "type": "uint256"
        },
        {
          "internalType": "uint256",
          "name": "num",
          "type": "uint256"
        }
      ],
      "name": "logX",
      "outputs": [
        {
          "internalType": "uint256",
          "name": "",
          "type": "uint256"
        }
      ],
      "stateMutability": "pure",
      "type": "function"
    },
    {
      "inputs": [
        {
          "internalType": "uint256",
          "name": "amount_SASH_out",
          "type": "uint256"
        }
      ],
      "name": "getBondExchangeRateSASHtoUSD",
      "outputs": [
        {
          "internalType": "uint256",
          "name": "",
          "type": "uint256"
        }
      ],
      "stateMutability": "view",
      "type": "function"
    },
    {
      "inputs": [
        {
          "internalType": "uint256",
          "name": "amount_USD_in",
          "type": "uint256"
        }
      ],
      "name": "getBondExchangeRateUSDtoSASH",
      "outputs": [
        {
          "internalType": "uint256",
          "name": "",
          "type": "uint256"
        }
      ],
      "stateMutability": "view",
      "type": "function"
    },
    {
      "inputs": [
        {
          "internalType": "uint256",
          "name": "amount_SGM_out",
          "type": "uint256"
        }
      ],
      "name": "getBondExchangeRatSGMtoSASH",
      "outputs": [
        {
          "internalType": "uint256",
          "name": "",
          "type": "uint256"
        }
      ],
      "stateMutability": "view",
      "type": "function"
    },
    {
      "inputs": [
        {
          "internalType": "uint256",
          "name": "amount_SASH_in",
          "type": "uint256"
        }
      ],
      "name": "getBondExchangeRateSASHtoSGM",
      "outputs": [
        {
          "internalType": "uint256",
          "name": "",
          "type": "uint256"
        }
      ],
      "stateMutability": "view",
      "type": "function"
    },
    {
      "inputs": [
        {
          "internalType": "address",
          "name": "contract_address",
          "type": "address"
        },
        {
          "internalType": "address",
          "name": "_to",
          "type": "address"
        },
        {
          "internalType": "uint256",
          "name": "amount_USD_in",
          "type": "uint256"
        }
      ],
      "name": "buySASHBondWithUSD",
      "outputs": [
        {
          "internalType": "bool",
          "name": "",
          "type": "bool"
        }
      ],
      "stateMutability": "nonpayable",
      "type": "function"
    },
    {
      "inputs": [
        {
          "internalType": "address",
          "name": "_to",
          "type": "address"
        },
        {
          "internalType": "uint256",
          "name": "amount_SASH_in",
          "type": "uint256"
        }
      ],
      "name": "buySGMBondWithSASH",
      "outputs": [
        {
          "internalType": "bool",
          "name": "",
          "type": "bool"
        }
      ],
      "stateMutability": "nonpayable",
      "type": "function"
    },
    {
      "inputs": [
        {
          "internalType": "address",
          "name": "_from",
          "type": "address"
        },
        {
          "internalType": "address",
          "name": "_to",
          "type": "address"
        },
        {
          "internalType": "uint256",
          "name": "amount_SGM_in",
          "type": "uint256"
        }
      ],
      "name": "buyVoteBondWithSGM",
      "outputs": [
        {
          "internalType": "bool",
          "name": "",
          "type": "bool"
        }
      ],
      "stateMutability": "nonpayable",
      "type": "function"
    },
    {
      "inputs": [
        {
          "internalType": "address",
          "name": "_to",
          "type": "address"
        },
        {
          "internalType": "uint256",
          "name": "class",
          "type": "uint256"
        },
        {
          "internalType": "uint256[]",
          "name": "nonce",
          "type": "uint256[]"
        },
        {
          "internalType": "uint256[]",
          "name": "_amount",
          "type": "uint256[]"
        },
        {
          "internalType": "address",
          "name": "first_referral",
          "type": "address"
        },
        {
          "internalType": "address",
          "name": "second_referral",
          "type": "address"
        }
      ],
      "name": "redeemBond",
      "outputs": [
        {
          "internalType": "bool",
          "name": "",
          "type": "bool"
        }
      ],
      "stateMutability": "nonpayable",
      "type": "function"
    }
  ],
  "bytecode": "0x6080604052600880546001600160a01b0319908116735c69bee701ef814a2b6a3edd4b1652cb9cc5aa6f1790915560098054909116737a250d5630b4cf539739df2c5dacb4c659f2488d17905534801561005857600080fd5b506040516130bb3803806130bb8339818101604052608081101561007b57600080fd5b5080516020808301516040840151606090940151600180546001600160a01b039586166001600160a01b0319918216179182905560028054948716948216949094179093556003805496861696841696909617909555600080548316331781556008805492861692841692909217909155805260069091527f54cdd369e4e8a8515e52ca72ec816c2101831ad1f18bf44102ed171459c9b4f8805490911692909116919091179055612f89806101326000396000f3fe608060405234801561001057600080fd5b50600436106101cf5760003560e01c80638a10f17111610104578063acbf8d9b116100a2578063c1ba6e9311610071578063c1ba6e931461066a578063cd4c551a146106ad578063d351b5fd146106cc578063e1dce058146106ff576101cf565b8063acbf8d9b14610463578063b6ea41c7146104a8578063b9b93a70146104c5578063bd2d904514610631576101cf565b8063906f0922116100de578063906f092214610412578063911ffd0d1461041a57806394d275d0146104225780639584d85e1461045b576101cf565b80638a10f171146103ba5780638c939008146103d75780638f41345c1461040a576101cf565b8063540d60361161017157806375b95eb61161014b57806375b95eb6146103795780637abb8efb146103815780638581923f146103895780638780d73b14610391576101cf565b8063540d6036146102f057806371652e40146103195780637361396714610336576101cf565b80631885d855116101ad5780631885d8551461027b57806319d2fda7146102835780632340e030146102a05780634e64be98146102d3576101cf565b80631129753f146101d45780631604688c1461021b57806316fd1f981461024c575b600080fd5b610207600480360360208110156101ea57600080fd5b503573ffffffffffffffffffffffffffffffffffffffff16610732565b604080519115158252519081900360200190f35b6102236107a2565b6040805173ffffffffffffffffffffffffffffffffffffffff9092168252519081900360200190f35b6102696004803603602081101561026257600080fd5b50356107be565b60408051918252519081900360200190f35b610223610927565b6102236004803603602081101561029957600080fd5b5035610943565b610207600480360360208110156102b657600080fd5b503573ffffffffffffffffffffffffffffffffffffffff1661096b565b610269600480360360208110156102e957600080fd5b5035610a3e565b6102696004803603606081101561030657600080fd5b5080359060208101359060400135610c03565b6102236004803603602081101561032f57600080fd5b5035610c6d565b6102076004803603606081101561034c57600080fd5b5073ffffffffffffffffffffffffffffffffffffffff813581169160208101359091169060400135610ca1565b610223611480565b61022361149c565b6102236114b8565b610269600480360360608110156103a757600080fd5b50803590602081013590604001356114d4565b610269600480360360208110156103d057600080fd5b50356114ea565b610207600480360360208110156103ed57600080fd5b503573ffffffffffffffffffffffffffffffffffffffff166115e7565b610223611847565b610223611863565b61020761187f565b6102076004803603604081101561043857600080fd5b5073ffffffffffffffffffffffffffffffffffffffff81351690602001356118a0565b610223611ed7565b6102076004803603606081101561047957600080fd5b5073ffffffffffffffffffffffffffffffffffffffff8135811691602081013582169160409091013516611ef3565b610269600480360360208110156104be57600080fd5b5035612115565b610207600480360360c08110156104db57600080fd5b73ffffffffffffffffffffffffffffffffffffffff8235169160208101359181019060608101604082013564010000000081111561051857600080fd5b82018360208201111561052a57600080fd5b8035906020019184602083028401116401000000008311171561054c57600080fd5b919080806020026020016040519081016040528093929190818152602001838360200280828437600092019190915250929594936020810193503591505064010000000081111561059c57600080fd5b8201836020820111156105ae57600080fd5b803590602001918460208302840111640100000000831117156105d057600080fd5b9190808060200260200160405190810160405280939291908181526020018383602002808284376000920191909152509295505073ffffffffffffffffffffffffffffffffffffffff83358116945060209093013590921691506122729050565b6102076004803603604081101561064757600080fd5b508035906020013573ffffffffffffffffffffffffffffffffffffffff16612812565b6102076004803603606081101561068057600080fd5b5073ffffffffffffffffffffffffffffffffffffffff813581169160208101359091169060400135612920565b610207600480360360208110156106c357600080fd5b50351515612db9565b610207600480360360208110156106e257600080fd5b503573ffffffffffffffffffffffffffffffffffffffff16612e08565b6102076004803603602081101561071557600080fd5b503573ffffffffffffffffffffffffffffffffffffffff16612e79565b60035460009073ffffffffffffffffffffffffffffffffffffffff16331461075957600080fd5b50600380547fffffffffffffffffffffffff00000000000000000000000000000000000000001673ffffffffffffffffffffffffffffffffffffffff831617905560015b919050565b60095473ffffffffffffffffffffffffffffffffffffffff1681565b6000670de0b6b3a7640000821015610821576040517f08c379a0000000000000000000000000000000000000000000000000000000008152600401808060200182810382526021815260200180612f336021913960400191505060405180910390fd5b6000808052600660209081527f54cdd369e4e8a8515e52ca72ec816c2101831ad1f18bf44102ed171459c9b4f854604080517f18160ddd000000000000000000000000000000000000000000000000000000008152905169d3c21bcecceda10000009373ffffffffffffffffffffffffffffffffffffffff909316926318160ddd9260048082019391829003018186803b1580156108be57600080fd5b505afa1580156108d2573d6000803e3d6000fd5b505050506040513d60208110156108e857600080fd5b5051816108f157fe5b04905060006109036010600184610c03565b905061091281600b60016114d4565b846103e8028161091e57fe5b04949350505050565b60015473ffffffffffffffffffffffffffffffffffffffff1681565b60066020526000908152604090205473ffffffffffffffffffffffffffffffffffffffff1681565b60035460009073ffffffffffffffffffffffffffffffffffffffff1633146109f457604080517f08c379a000000000000000000000000000000000000000000000000000000000815260206004820152601d60248201527f4552433635393a206f70657261746f7220756e617574686f72697a6564000000604482015290519081900360640190fd5b506005805473ffffffffffffffffffffffffffffffffffffffff83167fffffffffffffffffffffffff00000000000000000000000000000000000000009091161790556001919050565b6000670de0b6b3a7640000821015610aa1576040517f08c379a0000000000000000000000000000000000000000000000000000000008152600401808060200182810382526023815260200180612f106023913960400191505060405180910390fd5b600254604080517f731778f2000000000000000000000000000000000000000000000000000000008152905160009273ffffffffffffffffffffffffffffffffffffffff169163731778f2916004808301926020929190829003018186803b158015610b0c57600080fd5b505afa158015610b20573d6000803e3d6000fd5b505050506040513d6020811015610b3657600080fd5b5051600254604080517f18160ddd0000000000000000000000000000000000000000000000000000000081529051929350600092849273ffffffffffffffffffffffffffffffffffffffff16916318160ddd916004808301926020929190829003018186803b158015610ba857600080fd5b505afa158015610bbc573d6000803e3d6000fd5b505050506040513d6020811015610bd257600080fd5b5051620f42400281610be057fe5b0490506103e8620f42406002830a0401808581610bf957fe5b0495945050505050565b600060015b60e0811015610c645760018185600a0a0a82870a81610c2357fe5b048481610c2c57fe5b041015610c5c577fffffffffffffffffffffffffffffffffffffffffffffffffffffffffffffffff019050610c66565b600101610c08565b505b9392505050565b60078181548110610c7a57fe5b60009182526020909120015473ffffffffffffffffffffffffffffffffffffffff16905081565b60055460009074010000000000000000000000000000000000000000900460ff161515600114610cd057600080fd5b73ffffffffffffffffffffffffffffffffffffffff8416331480610d0b575060035473ffffffffffffffffffffffffffffffffffffffff1633145b610d1457600080fd5b6000610d1f83612115565b600854600254600154604080517fe6a4390500000000000000000000000000000000000000000000000000000000815273ffffffffffffffffffffffffffffffffffffffff9384166004820152918316602483015251939450600093919092169163e6a43905916044808301926020929190829003018186803b158015610da557600080fd5b505afa158015610db9573d6000803e3d6000fd5b505050506040513d6020811015610dcf57600080fd5b505190506000808080805b600754811015610f90576008546007805473ffffffffffffffffffffffffffffffffffffffff9092169163e6a43905919084908110610e1557fe5b600091825260209182902001546001546040805160e086901b7fffffffff0000000000000000000000000000000000000000000000000000000016815273ffffffffffffffffffffffffffffffffffffffff93841660048201529290911660248301525160448083019392829003018186803b158015610e9457600080fd5b505afa158015610ea8573d6000803e3d6000fd5b505050506040513d6020811015610ebe57600080fd5b5051600780549195509082908110610ed257fe5b60009182526020918290200154604080517f70a0823100000000000000000000000000000000000000000000000000000000815273ffffffffffffffffffffffffffffffffffffffff8881166004830152915191909216926370a082319260248082019391829003018186803b158015610f4b57600080fd5b505afa158015610f5f573d6000803e3d6000fd5b505050506040513d6020811015610f7557600080fd5b5051915081831015610f88578192508394505b600101610dda565b50600154604080517f85db2f3000000000000000000000000000000000000000000000000000000000815273ffffffffffffffffffffffffffffffffffffffff87811660048301528881166024830152604482018a9052915191909216916385db2f309160648083019260209291908290030181600087803b15801561101557600080fd5b505af1158015611029573d6000803e3d6000fd5b505050506040513d602081101561103f57600080fd5b50516110ac57604080517f08c379a000000000000000000000000000000000000000000000000000000000815260206004820152601f60248201527f4e6f7420656e6f7567682053474d20666f7220746865206465706f7369742e00604482015290519081900360640190fd5b600254604080517f23b872dd00000000000000000000000000000000000000000000000000000000815273ffffffffffffffffffffffffffffffffffffffff8d811660048301528881166024830152604482018c9052915191909216916323b872dd9160648083019260209291908290030181600087803b15801561113057600080fd5b505af1158015611144573d6000803e3d6000fd5b505050506040513d602081101561115a57600080fd5b50516111c757604080517f08c379a000000000000000000000000000000000000000000000000000000000815260206004820152601f60248201527f4e6f7420656e6f7567682053474d20666f7220746865206465706f7369742e00604482015290519081900360640190fd5b600154604080517f40c10f1900000000000000000000000000000000000000000000000000000000815273ffffffffffffffffffffffffffffffffffffffff8881166004830152602482018a9052915191909216916340c10f199160448083019260209291908290030181600087803b15801561124357600080fd5b505af1158015611257573d6000803e3d6000fd5b505050506040513d602081101561126d57600080fd5b505161127857600080fd5b604080517f6a627842000000000000000000000000000000000000000000000000000000008152306004820152905173ffffffffffffffffffffffffffffffffffffffff871691636a6278429160248083019260209291908290030181600087803b1580156112e657600080fd5b505af11580156112fa573d6000803e3d6000fd5b505050506040513d602081101561131057600080fd5b5050600554604080517f675981b700000000000000000000000000000000000000000000000000000000815273ffffffffffffffffffffffffffffffffffffffff8c8116600483015260026024830152604482018c90529151919092169163675981b79160648083019260209291908290030181600087803b15801561139557600080fd5b505af11580156113a9573d6000803e3d6000fd5b505050506040513d60208110156113bf57600080fd5b5050600554604080517f675981b700000000000000000000000000000000000000000000000000000000815273ffffffffffffffffffffffffffffffffffffffff8c8116600483015260036024830152604482018a90529151919092169163675981b79160648083019260209291908290030181600087803b15801561144457600080fd5b505af1158015611458573d6000803e3d6000fd5b505050506040513d602081101561146e57600080fd5b5060019b9a5050505050505050505050565b60055473ffffffffffffffffffffffffffffffffffffffff1681565b60005473ffffffffffffffffffffffffffffffffffffffff1681565b60045473ffffffffffffffffffffffffffffffffffffffff1681565b60008382600a0a0a84840a6103e8028161091e57fe5b6000808052600660209081527f54cdd369e4e8a8515e52ca72ec816c2101831ad1f18bf44102ed171459c9b4f854604080517f18160ddd0000000000000000000000000000000000000000000000000000000081529051849369d3c21bcecceda10000009373ffffffffffffffffffffffffffffffffffffffff16926318160ddd9260048083019392829003018186803b15801561158757600080fd5b505afa15801561159b573d6000803e3d6000fd5b505050506040513d60208110156115b157600080fd5b5051816115ba57fe5b04905060006115cc6010600184610c03565b90506103e8846115df83600b60016114d4565b028161091e57fe5b60035460009073ffffffffffffffffffffffffffffffffffffffff16331461160e57600080fd5b61161782612e79565b1561162157600080fd5b60078054600181019091557fa66cc928b5edb82af9bd49922954155ab7b0942694bea4ce44661d9a8736c6880180547fffffffffffffffffffffffff00000000000000000000000000000000000000001673ffffffffffffffffffffffffffffffffffffffff8481169182179092556008546000808052600660209081527f54cdd369e4e8a8515e52ca72ec816c2101831ad1f18bf44102ed171459c9b4f854604080517fe6a4390500000000000000000000000000000000000000000000000000000000815260048101969096529086166024860152519194929092169263e6a43905926044808301939192829003018186803b15801561172257600080fd5b505afa158015611736573d6000803e3d6000fd5b505050506040513d602081101561174c57600080fd5b505173ffffffffffffffffffffffffffffffffffffffff16141561183f576008546000808052600660209081527f54cdd369e4e8a8515e52ca72ec816c2101831ad1f18bf44102ed171459c9b4f854604080517fc9c6539600000000000000000000000000000000000000000000000000000000815273ffffffffffffffffffffffffffffffffffffffff888116600483015292831660248201529051919094169363c9c653969360448083019493928390030190829087803b15801561181257600080fd5b505af1158015611826573d6000803e3d6000fd5b505050506040513d602081101561183c57600080fd5b50505b506001919050565b60085473ffffffffffffffffffffffffffffffffffffffff1681565b60025473ffffffffffffffffffffffffffffffffffffffff1681565b60055474010000000000000000000000000000000000000000900460ff1681565b60055460009074010000000000000000000000000000000000000000900460ff1615156001146118cf57600080fd5b670de0b6b3a7640000821015611930576040517f08c379a0000000000000000000000000000000000000000000000000000000008152600401808060200182810382526021815260200180612f336021913960400191505060405180910390fd5b600061193b83610a3e565b90506000600260009054906101000a900473ffffffffffffffffffffffffffffffffffffffff1673ffffffffffffffffffffffffffffffffffffffff1663731778f26040518163ffffffff1660e01b815260040160206040518083038186803b1580156119a757600080fd5b505afa1580156119bb573d6000803e3d6000fd5b505050506040513d60208110156119d157600080fd5b5051600254604080517f18160ddd0000000000000000000000000000000000000000000000000000000081529051929350839273ffffffffffffffffffffffffffffffffffffffff909216916318160ddd91600480820192602092909190829003018186803b158015611a4357600080fd5b505afa158015611a57573d6000803e3d6000fd5b505050506040513d6020811015611a6d57600080fd5b505183011115611ade57604080517f08c379a000000000000000000000000000000000000000000000000000000000815260206004820152601360248201527f43616e74206d696e74206d6f72652053474d2e00000000000000000000000000604482015290519081900360640190fd5b600854600254600154604080517fe6a4390500000000000000000000000000000000000000000000000000000000815273ffffffffffffffffffffffffffffffffffffffff9384166004820152918316602483015251600093929092169163e6a4390591604480820192602092909190829003018186803b158015611b6257600080fd5b505afa158015611b76573d6000803e3d6000fd5b505050506040513d6020811015611b8c57600080fd5b50516000808052600660209081527f54cdd369e4e8a8515e52ca72ec816c2101831ad1f18bf44102ed171459c9b4f854604080517f23b872dd00000000000000000000000000000000000000000000000000000000815233600482015273ffffffffffffffffffffffffffffffffffffffff8087166024830152604482018c905291519596509116936323b872dd93606480840194938390030190829087803b158015611c3857600080fd5b505af1158015611c4c573d6000803e3d6000fd5b505050506040513d6020811015611c6257600080fd5b5051611ccf57604080517f08c379a000000000000000000000000000000000000000000000000000000000815260206004820181905260248201527f4e6f7420656e6f756768205341534820666f7220746865206465706f7369742e604482015290519081900360640190fd5b600254604080517f40c10f1900000000000000000000000000000000000000000000000000000000815273ffffffffffffffffffffffffffffffffffffffff848116600483015260248201879052915191909216916340c10f199160448083019260209291908290030181600087803b158015611d4b57600080fd5b505af1158015611d5f573d6000803e3d6000fd5b505050506040513d6020811015611d7557600080fd5b5051611d8057600080fd5b604080517f6a627842000000000000000000000000000000000000000000000000000000008152306004820152905173ffffffffffffffffffffffffffffffffffffffff831691636a6278429160248083019260209291908290030181600087803b158015611dee57600080fd5b505af1158015611e02573d6000803e3d6000fd5b505050506040513d6020811015611e1857600080fd5b5050600554604080517f675981b700000000000000000000000000000000000000000000000000000000815273ffffffffffffffffffffffffffffffffffffffff8981166004830152600160248301526002870260448301529151919092169163675981b79160648083019260209291908290030181600087803b158015611e9f57600080fd5b505af1158015611eb3573d6000803e3d6000fd5b505050506040513d6020811015611ec957600080fd5b506001979650505050505050565b60035473ffffffffffffffffffffffffffffffffffffffff1681565b60035460009073ffffffffffffffffffffffffffffffffffffffff163314611f1a57600080fd5b600854604080517fe6a4390500000000000000000000000000000000000000000000000000000000815273ffffffffffffffffffffffffffffffffffffffff868116600483015285811660248301529151600093929092169163e6a4390591604480820192602092909190829003018186803b158015611f9957600080fd5b505afa158015611fad573d6000803e3d6000fd5b505050506040513d6020811015611fc357600080fd5b5051604080517f70a08231000000000000000000000000000000000000000000000000000000008152306004820152905191925073ffffffffffffffffffffffffffffffffffffffff83169163a9059cbb91889184916370a08231916024808301926020929190829003018186803b15801561203e57600080fd5b505afa158015612052573d6000803e3d6000fd5b505050506040513d602081101561206857600080fd5b5051604080517fffffffff0000000000000000000000000000000000000000000000000000000060e086901b16815273ffffffffffffffffffffffffffffffffffffffff909316600484015260248301919091525160448083019260209291908290030181600087803b1580156120de57600080fd5b505af11580156120f2573d6000803e3d6000fd5b505050506040513d602081101561210857600080fd5b5060019695505050505050565b600080600260009054906101000a900473ffffffffffffffffffffffffffffffffffffffff1673ffffffffffffffffffffffffffffffffffffffff1663731778f26040518163ffffffff1660e01b815260040160206040518083038186803b15801561218057600080fd5b505afa158015612194573d6000803e3d6000fd5b505050506040513d60208110156121aa57600080fd5b5051600254604080517f18160ddd0000000000000000000000000000000000000000000000000000000081529051929350600092849273ffffffffffffffffffffffffffffffffffffffff16916318160ddd916004808301926020929190829003018186803b15801561221c57600080fd5b505afa158015612230573d6000803e3d6000fd5b505050506040513d602081101561224657600080fd5b5051620f4240028161225457fe5b0490506000620f42406002830a046103e80194909402949350505050565b60055460009074010000000000000000000000000000000000000000900460ff1615156001146122a157600080fd5b6005546040517fde26ffad0000000000000000000000000000000000000000000000000000000081523360048201818152602483018a905260806044840190815289516084850152895173ffffffffffffffffffffffffffffffffffffffff9095169463de26ffad948c938c938c9391929091606482019160a401906020808801910280838360005b8381101561234257818101518382015260200161232a565b50505050905001838103825284818151815260200191508051906020019060200280838360005b83811015612381578181015183820152602001612369565b505050509050019650505050505050602060405180830381600087803b1580156123aa57600080fd5b505af11580156123be573d6000803e3d6000fd5b505050506040513d60208110156123d457600080fd5b50516123dc57fe5b60008080805b875181101561246757896002141580156123fd575089600314155b1561241b5787818151811061240e57fe5b6020026020010151840193505b896002141561243d5787818151811061243057fe5b6020026020010151820191505b896003141561245f5787818151811061245257fe5b6020026020010151830192505b6001016123e2565b5082156125d45760008981526006602090815260408083205481517f40c10f1900000000000000000000000000000000000000000000000000000000815273ffffffffffffffffffffffffffffffffffffffff8f8116600483015260248201899052925192909116936340c10f199360448084019491939192918390030190829087803b1580156124f757600080fd5b505af115801561250b573d6000803e3d6000fd5b505050506040513d602081101561252157600080fd5b5050600354604080517fe100d85500000000000000000000000000000000000000000000000000000000815273ffffffffffffffffffffffffffffffffffffffff89811660048301528881166024830152604482018790529151919092169163e100d8559160648083019260209291908290030181600087803b1580156125a757600080fd5b505af11580156125bb573d6000803e3d6000fd5b505050506040513d60208110156125d157600080fd5b50505b600854600254600154604080517fe6a4390500000000000000000000000000000000000000000000000000000000815273ffffffffffffffffffffffffffffffffffffffff9384166004820152918316602483015251600093929092169163e6a4390591604480820192602092909190829003018186803b15801561265857600080fd5b505afa15801561266c573d6000803e3d6000fd5b505050506040513d602081101561268257600080fd5b50519050811561274557600254604080517f85db2f3000000000000000000000000000000000000000000000000000000000815273ffffffffffffffffffffffffffffffffffffffff84811660048301528e8116602483015260448201869052915191909216916385db2f309160648083019260209291908290030181600087803b15801561271057600080fd5b505af1158015612724573d6000803e3d6000fd5b505050506040513d602081101561273a57600080fd5b505161274557600080fd5b821561280457600154604080517f85db2f3000000000000000000000000000000000000000000000000000000000815273ffffffffffffffffffffffffffffffffffffffff84811660048301528e8116602483015260448201879052915191909216916385db2f309160648083019260209291908290030181600087803b1580156127cf57600080fd5b505af11580156127e3573d6000803e3d6000fd5b505050506040513d60208110156127f957600080fd5b505161280457600080fd5b505050509695505050505050565b60035460009073ffffffffffffffffffffffffffffffffffffffff16331461283957600080fd5b8261287f57600180547fffffffffffffffffffffffff00000000000000000000000000000000000000001673ffffffffffffffffffffffffffffffffffffffff84161790555b82600114156128c957600280547fffffffffffffffffffffffff00000000000000000000000000000000000000001673ffffffffffffffffffffffffffffffffffffffff84161790555b506000828152600660205260409020805473ffffffffffffffffffffffffffffffffffffffff83167fffffffffffffffffffffffff0000000000000000000000000000000000000000909116179055600192915050565b60055460009074010000000000000000000000000000000000000000900460ff16151560011461294f57600080fd5b61295884612e79565b15156001146129b2576040517f08c379a0000000000000000000000000000000000000000000000000000000008152600401808060200182810382526021815260200180612eef6021913960400191505060405180910390fd5b670de0b6b3a7640000821015612a13576040517f08c379a0000000000000000000000000000000000000000000000000000000008152600401808060200182810382526021815260200180612f336021913960400191505060405180910390fd5b6000612a1e836107be565b600854600154604080517fe6a4390500000000000000000000000000000000000000000000000000000000815273ffffffffffffffffffffffffffffffffffffffff8a8116600483015292831660248201529051939450600093919092169163e6a43905916044808301926020929190829003018186803b158015612aa257600080fd5b505afa158015612ab6573d6000803e3d6000fd5b505050506040513d6020811015612acc57600080fd5b5051604080517f23b872dd00000000000000000000000000000000000000000000000000000000815233600482015273ffffffffffffffffffffffffffffffffffffffff8084166024830152604482018890529151929350908816916323b872dd916064808201926020929091908290030181600087803b158015612b5057600080fd5b505af1158015612b64573d6000803e3d6000fd5b505050506040513d6020811015612b7a57600080fd5b5051612be757604080517f08c379a000000000000000000000000000000000000000000000000000000000815260206004820152601f60248201527f4e6f7420656e6f7567682055534420666f7220746865206465706f7369742e00604482015290519081900360640190fd5b600154604080517f40c10f1900000000000000000000000000000000000000000000000000000000815273ffffffffffffffffffffffffffffffffffffffff848116600483015260248201869052915191909216916340c10f199160448083019260209291908290030181600087803b158015612c6357600080fd5b505af1158015612c77573d6000803e3d6000fd5b505050506040513d6020811015612c8d57600080fd5b5051612c9857600080fd5b604080517f6a627842000000000000000000000000000000000000000000000000000000008152306004820152905173ffffffffffffffffffffffffffffffffffffffff831691636a6278429160248083019260209291908290030181600087803b158015612d0657600080fd5b505af1158015612d1a573d6000803e3d6000fd5b505050506040513d6020811015612d3057600080fd5b5050600554604080517f675981b700000000000000000000000000000000000000000000000000000000815273ffffffffffffffffffffffffffffffffffffffff8881166004830152600060248301819052600287026044840152925193169263675981b792606480840193602093929083900390910190829087803b158015611e9f57600080fd5b600580547fffffffffffffffffffffff00ffffffffffffffffffffffffffffffffffffffff16740100000000000000000000000000000000000000009215158302179081905560ff9190041690565b60035460009073ffffffffffffffffffffffffffffffffffffffff163314612e2f57600080fd5b506004805473ffffffffffffffffffffffffffffffffffffffff83167fffffffffffffffffffffffff00000000000000000000000000000000000000009091161790556001919050565b6000805b600754811015612ee5578273ffffffffffffffffffffffffffffffffffffffff1660078281548110612eab57fe5b60009182526020909120015473ffffffffffffffffffffffffffffffffffffffff161415612edd57600191505061079d565b600101612e7d565b5060009291505056fe546f6b656e20646f6573206e6f7420657869737420696e20746865206c6973742e416d6f756e74206d75737420626520686967686572207468616e20312053415348482e416d6f756e74206d75737420626520686967686572207468616e2031205553442ea264697066735822122040d0c1d0af4a7f8df57d6549ab0f53fc4724a22fc01f8f985e962a2ceb55d8b064736f6c63430006020033",
  "source": "pragma solidity ^0.6.2;\n// SPDX-License-Identifier: apache 2.0\n/*\n    Copyright 2020 Sigmoid Foundation <info@SGM.finance>\n    Licensed under the Apache License, Version 2.0 (the \"License\");\n    you may not use this file except in compliance with the License.\n    You may obtain a copy of the License at\n    http://www.apache.org/licenses/LICENSE-2.0\n    Unless required by applicable law or agreed to in writing, software\n    distributed under the License is distributed on an \"AS IS\" BASIS,\n    WITHOUT WARRANTIES OR CONDITIONS OF ANY KIND, either express or implied.\n    See the License for the specific language governing permissions and\n    limitations under the License.\n*/\n\nlibrary SafeMath {\n   \n    function add(uint256 a, uint256 b) internal pure returns (uint256) {\n        uint256 c = a + b;\n        require(c >= a, \"SafeMath: addition overflow\");\n\n        return c;\n    }\n\n    function sub(uint256 a, uint256 b) internal pure returns (uint256) {\n        return sub(a, b, \"SafeMath: subtraction overflow\");\n    }\n\n  \n    function sub(uint256 a, uint256 b, string memory errorMessage) internal pure returns (uint256) {\n        require(b <= a, errorMessage);\n        uint256 c = a - b;\n\n        return c;\n    }\n\n\n    function mul(uint256 a, uint256 b) internal pure returns (uint256) {\n       \n        if (a == 0) {\n            return 0;\n        }\n\n        uint256 c = a * b;\n        require(c / a == b, \"SafeMath: multiplication overflow\");\n\n        return c;\n    }\n\n  \n    function div(uint256 a, uint256 b) internal pure returns (uint256) {\n        return div(a, b, \"SafeMath: division by zero\");\n    }\n\n    function div(uint256 a, uint256 b, string memory errorMessage) internal pure returns (uint256) {\n        require(b > 0, errorMessage);\n        uint256 c = a / b;\n      \n\n        return c;\n    }\n\n    function mod(uint256 a, uint256 b) internal pure returns (uint256) {\n        return mod(a, b, \"SafeMath: modulo by zero\");\n    }\n\n    function mod(uint256 a, uint256 b, string memory errorMessage) internal pure returns (uint256) {\n        require(b != 0, errorMessage);\n        return a % b;\n    }\n}\n\ninterface IERC659 {\n    function totalSupply( uint256 class, uint256 nonce) external view returns (uint256);\n    function activeSupply( uint256 class, uint256 nonce) external view returns (uint256);\n    function burnedSupply( uint256 class, uint256 nonce) external view returns (uint256);\n    function redeemedSupply(  uint256 class, uint256 nonce) external  view  returns (uint256);\n    function getNonceCreated(uint256 class) external view returns (uint256[] memory);\n    function balanceOf(address account, uint256 class, uint256 nonce) external view returns (uint256);\n    function getBondSymbol(uint256 class) view external returns (string memory);\n    function getBondInfo(uint256 class, uint256 nonce) external view returns (string memory BondSymbol, uint256 timestamp, uint256 info2, uint256 info3, uint256 info4, uint256 info5,uint256 info6);\n    function bondIsRedeemable(uint256 class, uint256 nonce) external view returns (bool);\n    \n \n    function issueBond(address _to, uint256  class, uint256 _amount) external returns(bool);\n    function redeemBond(address _from, uint256 class, uint256[] calldata nonce, uint256[] calldata _amount) external returns(bool);\n    function transferBond(address _from, address _to, uint256[] calldata class, uint256[] calldata nonce, uint256[] calldata _amount) external returns(bool);\n    function burnBond(address _from, uint256[] calldata class, uint256[] calldata nonce, uint256[] calldata _amount) external returns(bool);\n    \n    event eventIssueBond(address _operator, address _to, uint256 class, uint256 nonce, uint256 _amount); \n    event eventRedeemBond(address _operator, address _from, uint256 class, uint256 nonce, uint256 _amount);\n    event eventBurnBond(address _operator, address _from, uint256 class, uint256 nonce, uint256 _amount);\n    event eventTransferBond(address _operator, address _from, address _to, uint256 class, uint256 nonce, uint256 _amount);\n}\n\ninterface IERC20 {\n    /**\n     * @dev Returns the amount of tokens in existence.\n     */\n    function totalSupply() external view returns (uint256);\n\n    /**\n     * @dev Returns the amount of tokens owned by `account`.\n     */\n    function balanceOf(address account) external view returns (uint256);\n\n    /**\n     * @dev Moves `amount` tokens from the caller's account to `recipient`.\n     *\n     * Returns a boolean value indicating whether the operation succeeded.\n     *\n     * Emits a {Transfer} event.\n     */\n    function transfer(address recipient, uint256 amount) external returns (bool);\n\n    /**\n     * @dev Returns the remaining number of tokens that `spender` will be\n     * allowed to spend on behalf of `owner` through {transferFrom}. This is\n     * zero by default.\n     *\n     * This value changes when {approve} or {transferFrom} are called.\n     */\n    function allowance(address owner, address spender) external view returns (uint256);\n\n    /**\n     * @dev Sets `amount` as the allowance of `spender` over the caller's tokens.\n     *\n     * Returns a boolean value indicating whether the operation succeeded.\n     *\n     * IMPORTANT: Beware that changing an allowance with this method brings the risk\n     * that someone may use both the old and the new allowance by unfortunate\n     * transaction ordering. One possible solution to mitigate this race\n     * condition is to first reduce the spender's allowance to 0 and set the\n     * desired value afterwards:\n     * https://github.com/ethereum/EIPs/issues/20#issuecomment-263524729\n     *\n     * Emits an {Approval} event.\n     */\n    function approve(address spender, uint256 amount) external returns (bool);\n\n    /**\n     * @dev Moves `amount` tokens from `sender` to `recipient` using the\n     * allowance mechanism. `amount` is then deducted from the caller's\n     * allowance.\n     *\n     * Returns a boolean value indicating whether the operation succeeded.\n     *\n     * Emits a {Transfer} event.\n     */\n    function transferFrom(address sender, address recipient, uint256 amount) external returns (bool);\n\n    /**\n     * @dev Emitted when `value` tokens are moved from one account (`from`) to\n     * another (`to`).\n     *\n     * Note that `value` may be zero.\n     */\n    event Transfer(address indexed from, address indexed to, uint256 value);\n\n    /**\n     * @dev Emitted when the allowance of a `spender` for an `owner` is set by\n     * a call to {approve}. `value` is the new allowance.\n     */\n    event Approval(address indexed owner, address indexed spender, uint256 value);\n}\n\ninterface IUniswapV2Factory {\n    event PairCreated(address indexed token0, address indexed token1, address pair, uint);\n\n    function feeTo() external view returns (address);\n    function feeToSetter() external view returns (address);\n\n    function getPair(address tokenA, address tokenB) external view returns (address pair);\n    function allPairs(uint) external view returns (address pair);\n    function allPairsLength() external view returns (uint);\n\n    function createPair(address tokenA, address tokenB) external returns (address pair);\n\n    function setFeeTo(address) external;\n    function setFeeToSetter(address) external;\n}\n\ninterface IUniswapV2Pair {\n    event Approval(address indexed owner, address indexed spender, uint value);\n    event Transfer(address indexed from, address indexed to, uint value);\n\n    function name() external pure returns (string memory);\n    function symbol() external pure returns (string memory);\n    function decimals() external pure returns (uint8);\n    function totalSupply() external view returns (uint);\n    function balanceOf(address owner) external view returns (uint);\n    function allowance(address owner, address spender) external view returns (uint);\n\n    function approve(address spender, uint value) external returns (bool);\n    function transfer(address to, uint value) external returns (bool);\n    function transferFrom(address from, address to, uint value) external returns (bool);\n\n    function DOMAIN_SEPARATOR() external view returns (bytes32);\n    function PERMIT_TYPEHASH() external pure returns (bytes32);\n    function nonces(address owner) external view returns (uint);\n\n    function permit(address owner, address spender, uint value, uint deadline, uint8 v, bytes32 r, bytes32 s) external;\n\n    event Mint(address indexed sender, uint amount0, uint amount1);\n    event Burn(address indexed sender, uint amount0, uint amount1, address indexed to);\n    event Swap(\n        address indexed sender,\n        uint amount0In,\n        uint amount1In,\n        uint amount0Out,\n        uint amount1Out,\n        address indexed to\n    );\n    event Sync(uint112 reserve0, uint112 reserve1);\n\n    function MINIMUM_LIQUIDITY() external pure returns (uint);\n    function factory() external view returns (address);\n    function token0() external view returns (address);\n    function token1() external view returns (address);\n    function getReserves() external view returns (uint112 reserve0, uint112 reserve1, uint32 blockTimestampLast);\n    function price0CumulativeLast() external view returns (uint);\n    function price1CumulativeLast() external view returns (uint);\n    function kLast() external view returns (uint);\n\n    function mint(address to) external returns (uint liquidity);\n    function burn(address to) external returns (uint amount0, uint amount1);\n    function swap(uint amount0Out, uint amount1Out, address to, bytes calldata data) external;\n    function skim(address to) external;\n    function sync() external;\n\n    function initialize(address, address) external;\n}\n\ninterface ISigmoidTokens {\n    function isActive(bool _contract_is_active) external returns (bool);\n    function maxiumuSupply() external view returns (uint256);\n    function setGovernanceContract(address governance_address) external returns (bool);\n    function setBankContract(address bank_address) external returns (bool);\n    function mint(address _to, uint256 _amount) external returns (bool);\n    function bankTransfer(address _from, address _to, uint256 _amount) external returns (bool);\n}\n\ninterface ISigmoidGovernance{\n    function getClassInfo(uint256 poposal_class) external view returns(uint256 timelock, uint256 minimum_approval, uint256 minimum_vote, uint256 need_architect_veto, uint256 maximum_execution_time, uint256 minimum_execution_interval);\n    function getProposalInfo(uint256 poposal_class, uint256 proposal_nonce) external view returns(uint256 timestamp, uint256 total_vote, uint256 approve_vote, uint256 architect_veto, uint256 execution_left, uint256 execution_interval);\n    \n    function vote(uint256 poposal_class, uint256 proposal_nonce, bool approval, uint256 _amount) external returns(bool);\n    function createProposal(uint256 poposal_class, address proposal_address, uint256 proposal_execution_nonce, uint256 proposal_execution_interval) external returns(bool);\n    function revokeProposal(uint256 poposal_class, uint256 proposal_nonce, uint256 revoke_poposal_class, uint256 revoke_proposal_nonce) external returns(bool);\n    function checkProposal(uint256 poposal_class, uint256 proposal_nonce) external view returns(bool);\n    \n    function firstTimeSetContract(address SASH_address,address SGM_address, address bank_address,address bond_address) external returns(bool);\n    function InitializeSigmoid() external returns(bool);\n    function pauseAll() external returns(bool);\n    \n    function updateGovernanceContract(uint256 poposal_class, uint256 proposal_nonce, address new_governance_address) external returns(bool);\n    function updateExchangeContract(uint256 poposal_class, uint256 proposal_nonce, address new_exchange_address) external returns(bool);\n    function updateBankContract(uint256 poposal_class, uint256 proposal_nonce, address new_bank_address) external returns(bool);\n    function updateBondContract(uint256 poposal_class, uint256 proposal_nonce, address new_bond_address) external returns(bool);\n    function updateTokenContract(uint256 poposal_class, uint256 proposal_nonce, uint256 new_token_class, address new_token_address) external returns(bool);\n    \n    function migratorLP(uint256 poposal_class, uint256 proposal_nonce, address _to, address tokenA, address tokenB) external returns(bool);\n    function transferTokenFromGovernance(uint256 poposal_class, uint256 proposal_nonce, address _token, address _to, uint256 _amount) external returns(bool);\n    function claimFundForProposal(uint256 poposal_class, uint256 proposal_nonce, address _to, uint256 SASH_amount,  uint256 SGM_amount) external returns(bool);\n    function mintAllocationToken(address _to, uint256 SASH_amount, uint256 SGM_amount) external returns(bool);\n    function changeTeamAllocation(uint256 poposal_class, uint256 proposal_nonce, address _to, uint256 SASH_ppm, uint256 SGM_ppm) external returns(bool);\n    function changeCommunityFundSize(uint256 poposal_class, uint256 proposal_nonce, uint256 new_SGM_budget_ppm, uint256 new_SASH_budget_ppm) external returns(bool);\n    \n    function changeReferralPolicy(uint256 poposal_class, uint256 proposal_nonce, uint256 new_1st_referral_reward_ppm, uint256 new_1st_referral_POS_reward_ppm, uint256 new_2nd_referral_reward_ppm, uint256 new_2nd_referral_POS_reward_ppm, uint256 new_first_referral_POS_Threshold_ppm, uint256 new_second_referral_POS_Threshold_ppm) external returns(bool);\n    function claimReferralReward(address first_referral, address second_referral, uint256 SASH_total_amount) external returns(bool);\n    function getReferralPolicy(uint256 index) external view returns(uint256);\n}\n\ninterface ISigmoidBank{\n    function isActive(bool _contract_is_active) external returns (bool);\n    function setGovernanceContract(address governance_address) external returns (bool);\n    function setBankContract(address bank_address) external returns (bool);\n    function setBondContract(address bond_address) external returns (bool);\n    function setTokenContract(uint256 token_class, address token_address) external returns (bool);\n   \n    function addStablecoinToList(address contract_address) external returns (bool);\n    function checkIntheList(address contract_address) view external returns (bool);\n    function migratorLP(address _to, address tokenA, address tokenB) external returns (bool);\n\n    \n    function powerX(uint256 power_root, uint256 num,uint256 num_decimals)  pure external returns (uint256);\n    function logX(uint256 log_root,uint256 log_decimals, uint256 num)  pure external returns (uint256);\n    \n    function getBondExchangeRateSASHtoUSD(uint256 amount_SASH_out) view external returns (uint256);\n    function getBondExchangeRateUSDtoSASH(uint256 amount_USD_in) view external returns (uint256);\n    function getBondExchangeRatSGMtoSASH(uint256 amount_SGM_out) view external returns (uint256);\n    function getBondExchangeRateSASHtoSGM(uint256 amount_SASH_in) view external returns (uint256);\n    \n    function buySASHBondWithUSD(address contract_address, address _to, uint256 amount_USD_in) external returns (bool);\n    function buySGMBondWithSASH(address _to, uint256 amount_SASH_in) external returns (bool);\n    function buyVoteBondWithSGM(address _from, address _to, uint256 amount_SGM_in) external returns (bool);\n    \n   function redeemBond(address _to, uint256 class, uint256[] calldata nonce, uint256[] calldata _amount, address first_referral, address second_referral) external returns (bool);\n}\n\ncontract SigmoidBank is ISigmoidBank{\n    address public dev_address;\n    address public SASH_contract;\n    address public SGM_contract;\n    address public governance_contract;\n    address public bank_contract;\n    address public bond_contract;\n    bool public contract_is_active;\n\n    mapping (uint256 => address) public token_contract;\n    address[] public USD_token_list;\n    \n    address public SwapFactoryAddress = 0x5C69bEe701ef814a2B6a3EDD4B1652CB9cc5aA6f;\n    address public SwapRouterAddress = 0x7a250d5630B4cF539739dF2C5dAcb4c659F2488D;\n    \n    constructor(address SASH_Contract, address SGM_Contract, address governance_address,address swapFactoryAddress ) public {\n        SASH_contract=SASH_Contract;\n        SGM_contract=SGM_Contract;\n        governance_contract=governance_address;\n        dev_address = msg.sender;\n        SwapFactoryAddress=swapFactoryAddress;\n        token_contract[0]=SASH_contract;\n\n    }\n    \n     function isActive(bool _contract_is_active) public override returns (bool){\n         contract_is_active = _contract_is_active;\n         return(contract_is_active);\n         \n     }\n\n    function setGovernanceContract(address governance_address) public override returns (bool) {\n        require(msg.sender==governance_contract);\n        governance_contract = governance_address;\n        return(true);\n    }\n    \n    function setBankContract(address bank_address) public override returns (bool) {\n        require(msg.sender==governance_contract);\n        bank_contract = bank_address;\n        return(true);\n    }\n    \n    function setBondContract(address bond_address)public override returns (bool) {\n        require(msg.sender==governance_contract, \"ERC659: operator unauthorized\");\n        bond_contract=bond_address;\n        return (true);\n    }   \n      \n    function setTokenContract(uint256 class, address contract_address) public override returns (bool) {\n        require(msg.sender==governance_contract);\n        \n        if (class == 0){\n            SASH_contract=contract_address;  \n        }\n        \n        if (class == 1){\n            SGM_contract=contract_address;  \n        }\n        \n        token_contract[class] = contract_address;\n        return(true);\n    }\n        \n    function checkIntheList(address contract_address) view public override returns (bool){\n        for (uint i=0; i<USD_token_list.length; i++) {\n        if(USD_token_list[i]==contract_address){\n            return(true);\n            }\n        }\n        return(false);\n    }\n    \n    function addStablecoinToList(address contract_address) public override returns (bool) {\n        require(msg.sender == governance_contract);\n        require(checkIntheList(contract_address) == false);\n        USD_token_list.push(contract_address);\n        if(IUniswapV2Factory(SwapFactoryAddress).getPair(contract_address,token_contract[0])==address(0)){  \n            IUniswapV2Factory(SwapFactoryAddress).createPair(contract_address,token_contract[0]);\n        }\n        \n        return(true);\n    }\n    \n    function migratorLP(address _to, address tokenA, address tokenB) public override returns (bool){\n         require(msg.sender == governance_contract);\n         address pair_addrss = IUniswapV2Factory(SwapFactoryAddress).getPair(tokenA, tokenB);\n         IUniswapV2Pair(pair_addrss).transfer(_to, IUniswapV2Pair(pair_addrss).balanceOf(address(this)));\n         return(true);\n    }\n    \n    function powerX(uint256 power_root, uint256 num,uint256 num_decimals) pure public override returns (uint256) {\n        return(num**power_root*1e3/((10**num_decimals)**power_root));\n            }\n        \n    \n    \n    function logX(uint256 log_root,uint256 log_decimals, uint256 num)  pure public override returns (uint256) {\n        for (uint i=1; i<224; i++) {\n            if(num/(log_root**i/((10**log_decimals)**i))<1){\n            return(i-1);\n            }\n        }\n    }\n\n    function getBondExchangeRateSASHtoUSD(uint256 amount_SASH_out) view public override returns (uint256){\n        uint256 supply_multiplier=IERC20(token_contract[0]).totalSupply()/1e24;\n        uint256 supply_multiplier_power= logX(16,1,supply_multiplier);\n        return(powerX(supply_multiplier_power,11,1)*amount_SASH_out/1e3);\n    }\n    \n    function getBondExchangeRateUSDtoSASH(uint256 amount_USD_in) view public override returns (uint256){\n        require(amount_USD_in>=1e18, \"Amount must be higher than 1 USD.\");\n        uint256 supply_multiplier=IERC20(token_contract[0]).totalSupply()/1e24;\n        uint256 supply_multiplier_power= logX(16,1,supply_multiplier);\n        return(amount_USD_in*1e3/powerX(supply_multiplier_power,11,1));\n    }\n    \n    function getBondExchangeRatSGMtoSASH(uint256 amount_SGM_out) view public override returns (uint256){\n        uint256 maxium_supply_SGM = ISigmoidTokens(SGM_contract).maxiumuSupply();\n        uint256 supply_multiplier = IERC20(SGM_contract).totalSupply()*1e6/maxium_supply_SGM;\n        uint256 supply_multiplier_rate =1000+supply_multiplier**2/1e6;\n        return(amount_SGM_out*supply_multiplier_rate);       \n    }\n    \n   function getBondExchangeRateSASHtoSGM(uint256 amount_SASH_in) view public override returns (uint256){\n        require(amount_SASH_in>=1e18, \"Amount must be higher than 1 SASHH.\");\n        uint256 maxium_supply_SGM = ISigmoidTokens(SGM_contract).maxiumuSupply();\n        uint256 supply_multiplier=IERC20(SGM_contract).totalSupply()*1e6/maxium_supply_SGM;\n        uint256 supply_multiplier_rate= 1000+supply_multiplier**2/1e6;\n  \n        return(amount_SASH_in/supply_multiplier_rate);          \n    }\n\n    function buySASHBondWithUSD(address contract_address, address _to, uint256 amount_USD_in) public override returns (bool){\n        require(contract_is_active == true);\n        require(checkIntheList(contract_address)==true, \"Token does not exist in the list.\");\n        require(amount_USD_in>=1e18, \"Amount must be higher than 1 USD.\");\n        uint256 amount_bond_out = getBondExchangeRateUSDtoSASH(amount_USD_in);\n        address pair_addrss=IUniswapV2Factory(SwapFactoryAddress).getPair(contract_address,SASH_contract);\n        require(IERC20(contract_address).transferFrom(msg.sender, pair_addrss, amount_USD_in),'Not enough USD for the deposit.');\n        require(ISigmoidTokens(SASH_contract).mint(pair_addrss,amount_bond_out));\n        IUniswapV2Pair(pair_addrss).sync;\n        IUniswapV2Pair(pair_addrss).mint(address(this));\n        IERC659(bond_contract).issueBond(_to, 0, amount_bond_out*2);\n        return(true);\n    }\n    \n    function buySGMBondWithSASH(address _to, uint256 amount_SASH_in) public override returns (bool){\n        require(contract_is_active == true);\n        require(amount_SASH_in>=1e18, \"Amount must be higher than 1 USD.\");\n        uint256 amount_bond_out = getBondExchangeRateSASHtoSGM(amount_SASH_in);\n        uint256 maxium_supply_SGM = ISigmoidTokens(SGM_contract).maxiumuSupply();\n        require(amount_bond_out+IERC20(SGM_contract).totalSupply()<=maxium_supply_SGM, \"Cant mint more SGM.\");\n        address pair_addrss=IUniswapV2Factory(SwapFactoryAddress).getPair(SGM_contract,SASH_contract);\n        require(IERC20(token_contract[0]).transferFrom(msg.sender, pair_addrss, amount_SASH_in),'Not enough SASH for the deposit.');\n        require(ISigmoidTokens(SGM_contract).mint(pair_addrss,amount_bond_out));\n        IUniswapV2Pair(pair_addrss).sync;\n        IUniswapV2Pair(pair_addrss).mint(address(this));\n        IERC659(bond_contract).issueBond(_to, 1, amount_bond_out*2);\n        return(true);\n    }\n    \n    function buyVoteBondWithSGM(address _from, address _to, uint256 amount_SGM_in) public override returns (bool){\n        require(contract_is_active == true);\n        require(_from == msg.sender || msg.sender == governance_contract);\n\n        uint256 amount_bond_out = getBondExchangeRatSGMtoSASH(amount_SGM_in);\n        address pair_addrss=IUniswapV2Factory(SwapFactoryAddress).getPair(SGM_contract,SASH_contract);\n        \n        address Bigest_LP_address;\n        address current_LP_address;\n        uint256 Bigest_LP_size;\n        uint256 current_LP_size;\n        for (uint i=0; i<USD_token_list.length; i++){\n            \n            current_LP_address = IUniswapV2Factory(SwapFactoryAddress).getPair(USD_token_list[i],SASH_contract);\n            current_LP_size = IERC20(USD_token_list[i]).balanceOf(current_LP_address);\n            if (Bigest_LP_size < current_LP_size){\n                Bigest_LP_size = current_LP_size;\n                Bigest_LP_address = current_LP_address;\n            }\n        }\n        require(ISigmoidTokens(SASH_contract).bankTransfer(Bigest_LP_address, pair_addrss, amount_bond_out),'Not enough SGM for the deposit.');\n        IUniswapV2Pair(Bigest_LP_address).sync;\n        require(IERC20(SGM_contract).transferFrom(_from, pair_addrss, amount_SGM_in),'Not enough SGM for the deposit.');\n        require(ISigmoidTokens(SASH_contract).mint(pair_addrss,amount_bond_out));\n        IUniswapV2Pair(pair_addrss).sync;\n        IUniswapV2Pair(pair_addrss).mint(address(this));\n        IERC659(bond_contract).issueBond(_to, 2, amount_SGM_in);\n        IERC659(bond_contract).issueBond(_to, 3, amount_bond_out);\n        return(true);\n    }\n        \n    function redeemBond(address _to, uint256 class, uint256[] memory nonce, uint256[] memory _amount, address first_referral, address second_referral) public override returns (bool){\n        require(contract_is_active == true);\n        assert( IERC659(bond_contract).redeemBond(msg.sender, class, nonce, _amount));\n        uint256 amount_token_mint;\n        uint256 amount_SASH_transfer;\n        uint256 amount_SGM_transfer;\n        \n        for (uint i=0; i<_amount.length; i++){\n            if(class!=2 && class!=3){\n                amount_token_mint+=_amount[i];\n            }\n            \n            if(class==2){\n                amount_SGM_transfer += _amount[i];\n           \n            }\n        \n            if(class==3){\n                amount_SASH_transfer += _amount[i];\n           \n            }\n            \n        }\n      \n        if(amount_token_mint > 0){\n              \n            ISigmoidTokens(token_contract[class]).mint(_to,amount_token_mint);\n            ISigmoidGovernance(governance_contract).claimReferralReward(first_referral, second_referral, amount_token_mint);\n       \n        }\n        \n        address pair_addrss=IUniswapV2Factory(SwapFactoryAddress).getPair(SGM_contract,SASH_contract);\n        \n        if(amount_SGM_transfer > 0){\n            \n           require(ISigmoidTokens(SGM_contract).bankTransfer(pair_addrss, _to, amount_SGM_transfer));\n       \n        }\n        \n        if(amount_SASH_transfer > 0){\n            \n            require(ISigmoidTokens(SASH_contract).bankTransfer(pair_addrss, _to, amount_SASH_transfer));\n       \n        }\n \n    }\n \n    \n}\n",
  "sourcePath": "D://workGroup/contracts/SigmoidBank.sol",
  "compiler": {
    "name": "solc",
    "version": "0.6.2+commit.bacdbe57.Emscripten.clang"
  },
  "schemaVersion": "3.3.3",
  "updatedAt": "2021-04-19T10:09:28.791Z",
  "devdoc": {
    "methods": {}
  },
  "userdoc": {
    "methods": {}
  }
}